{
  "_format": "hh-sol-artifact-1",
  "contractName": "NftRent",
  "sourceName": "contracts/integration/NftRent.sol",
  "abi": [
    {
      "inputs": [
        {
          "internalType": "address",
          "name": "_smartWalletFactory",
          "type": "address"
        }
      ],
      "stateMutability": "nonpayable",
      "type": "constructor"
    },
    {
      "inputs": [
        {
          "internalType": "address",
          "name": "account",
          "type": "address"
        }
      ],
      "name": "AddressInsufficientBalance",
      "type": "error"
    },
    {
      "inputs": [],
      "name": "FailedInnerCall",
      "type": "error"
    },
    {
      "anonymous": false,
      "inputs": [
        {
          "indexed": true,
          "internalType": "bytes32",
          "name": "listId",
          "type": "bytes32"
        }
      ],
      "name": "List",
      "type": "event"
    },
    {
      "anonymous": false,
      "inputs": [
        {
          "indexed": true,
          "internalType": "bytes32",
          "name": "listId",
          "type": "bytes32"
        },
        {
          "indexed": true,
          "internalType": "bytes32",
          "name": "rentId",
          "type": "bytes32"
        }
      ],
      "name": "Rent",
      "type": "event"
    },
    {
      "anonymous": false,
      "inputs": [
        {
          "indexed": true,
          "internalType": "bytes32",
          "name": "rentId",
          "type": "bytes32"
        }
      ],
      "name": "RentReturn",
      "type": "event"
    },
    {
      "anonymous": false,
      "inputs": [
        {
          "indexed": true,
          "internalType": "bytes32",
          "name": "rentId",
          "type": "bytes32"
        }
      ],
      "name": "RentReturnForced",
      "type": "event"
    },
    {
      "inputs": [
        {
          "internalType": "bytes32",
          "name": "rentId",
          "type": "bytes32"
        }
      ],
      "name": "autoExecuteCallback",
      "outputs": [],
      "stateMutability": "nonpayable",
      "type": "function"
    },
    {
      "inputs": [
        {
          "internalType": "uint256",
          "name": "",
          "type": "uint256"
        }
      ],
      "name": "blacklistedFunctionsERC721",
      "outputs": [
        {
          "internalType": "bytes4",
          "name": "",
          "type": "bytes4"
        }
      ],
      "stateMutability": "view",
      "type": "function"
    },
    {
      "inputs": [],
      "name": "counter",
      "outputs": [
        {
          "internalType": "uint256",
          "name": "",
          "type": "uint256"
        }
      ],
      "stateMutability": "view",
      "type": "function"
    },
    {
      "inputs": [
        {
          "internalType": "address",
          "name": "tokenContract",
          "type": "address"
        },
        {
          "internalType": "uint256",
          "name": "tokenId",
          "type": "uint256"
        },
        {
          "internalType": "uint256",
          "name": "rentDuration",
          "type": "uint256"
        },
        {
          "internalType": "uint256",
          "name": "ethFee",
          "type": "uint256"
        }
      ],
      "name": "list",
      "outputs": [
        {
          "internalType": "bytes32",
          "name": "id",
          "type": "bytes32"
        }
      ],
      "stateMutability": "nonpayable",
      "type": "function"
    },
    {
      "inputs": [
        {
          "internalType": "bytes32",
          "name": "",
          "type": "bytes32"
        }
      ],
      "name": "listInfos",
      "outputs": [
        {
          "internalType": "address",
          "name": "owner",
          "type": "address"
        },
        {
          "internalType": "address",
          "name": "tokenContract",
          "type": "address"
        },
        {
          "internalType": "uint256",
          "name": "tokenId",
          "type": "uint256"
        },
        {
          "internalType": "uint256",
          "name": "rentDuration",
          "type": "uint256"
        },
        {
          "internalType": "uint256",
          "name": "ethFee",
          "type": "uint256"
        },
        {
          "internalType": "bool",
          "name": "fulfilled",
          "type": "bool"
        }
      ],
      "stateMutability": "view",
      "type": "function"
    },
    {
      "inputs": [
        {
          "internalType": "address",
          "name": "",
          "type": "address"
        },
        {
          "internalType": "address",
          "name": "",
          "type": "address"
        },
        {
          "internalType": "uint256",
          "name": "",
          "type": "uint256"
        },
        {
          "internalType": "bytes",
          "name": "",
          "type": "bytes"
        }
      ],
      "name": "onERC721Received",
      "outputs": [
        {
          "internalType": "bytes4",
          "name": "",
          "type": "bytes4"
        }
      ],
      "stateMutability": "nonpayable",
      "type": "function"
    },
    {
      "inputs": [
        {
          "internalType": "bytes32",
          "name": "id",
          "type": "bytes32"
        }
      ],
      "name": "rent",
      "outputs": [
        {
          "internalType": "address",
          "name": "smartWallet",
          "type": "address"
        }
      ],
      "stateMutability": "payable",
      "type": "function"
    },
    {
      "inputs": [
        {
          "internalType": "bytes32",
          "name": "id",
          "type": "bytes32"
        }
      ],
      "name": "rentExternal",
      "outputs": [],
      "stateMutability": "payable",
      "type": "function"
    },
    {
      "inputs": [
        {
          "internalType": "bytes32",
          "name": "",
          "type": "bytes32"
        }
      ],
      "name": "rentInfos",
      "outputs": [
        {
          "internalType": "address",
          "name": "renter",
          "type": "address"
        },
        {
          "internalType": "uint256",
          "name": "rentEndsAt",
          "type": "uint256"
        },
        {
          "internalType": "bytes32",
          "name": "listId",
          "type": "bytes32"
        },
        {
          "internalType": "bool",
          "name": "closed",
          "type": "bool"
        }
      ],
      "stateMutability": "view",
      "type": "function"
    },
    {
      "inputs": [
        {
          "internalType": "bytes32",
          "name": "rentId",
          "type": "bytes32"
        }
      ],
      "name": "returnRented",
      "outputs": [],
      "stateMutability": "nonpayable",
      "type": "function"
    }
  ],
  "bytecode": "0x61014060405263a22cb46560e01b60a090815263095ea7b360e01b60c0526323b872dd60e01b60e052632142170760e11b61010052635c46a7ef60e11b610120526200005090600090600562000093565b503480156200005e57600080fd5b50604051620017213803806200172183398101604081905262000081916200014a565b6001600160a01b03166080526200017c565b600183019183908215620001215791602002820160005b83821115620000ed57835183826101000a81548163ffffffff021916908360e01c02179055509260200192600401602081600301049283019260010302620000aa565b80156200011f5782816101000a81549063ffffffff0219169055600401602081600301049283019260010302620000ed565b505b506200012f92915062000133565b5090565b5b808211156200012f576000815560010162000134565b6000602082840312156200015d57600080fd5b81516001600160a01b03811681146200017557600080fd5b9392505050565b608051611574620001ad600039600081816102f0015281816105bd0152818161089d0152610c3101526115746000f3fe6080604052600436106100905760003560e01c80638afd9ad7116100595780638afd9ad7146101b4578063a6d480e114610250578063bb74a1c21461027b578063c32118701461029b578063e706053a146102bb57600080fd5b80625cd93f14610095578063150b7a02146101175780631ada3ad91461015b578063396125eb1461017d57806361bc221a14610190575b600080fd5b3480156100a157600080fd5b506100e66100b0366004611241565b600260208190526000918252604090912080546001820154928201546003909201546001600160a01b0390911692919060ff1684565b604080516001600160a01b039095168552602085019390935291830152151560608201526080015b60405180910390f35b34801561012357600080fd5b50610142610132366004611285565b630a85bd0160e11b949350505050565b6040516001600160e01b0319909116815260200161010e565b34801561016757600080fd5b5061017b610176366004611241565b6102db565b005b61017b61018b366004611241565b610557565b34801561019c57600080fd5b506101a660035481565b60405190815260200161010e565b3480156101c057600080fd5b506102166101cf366004611241565b60016020819052600091825260409091208054918101546002820154600383015460048401546005909401546001600160a01b039586169590931693919290919060ff1686565b604080516001600160a01b0397881681529690951660208701529385019290925260608401526080830152151560a082015260c00161010e565b61026361025e366004611241565b610564565b6040516001600160a01b03909116815260200161010e565b34801561028757600080fd5b506101a6610296366004611365565b6106a5565b3480156102a757600080fd5b506101426102b6366004611241565b61085b565b3480156102c757600080fd5b5061017b6102d6366004611241565b610888565b6040516363a183d160e01b81523360048201527f00000000000000000000000000000000000000000000000000000000000000006001600160a01b0316906363a183d190602401602060405180830381865afa15801561033f573d6000803e3d6000fd5b505050506040513d601f19601f8201168201806040525081019061036391906113a0565b6103b45760405162461bcd60e51b815260206004820152601d60248201527f4e523a2073656e646572206e6f74206120736d6172742077616c6c657400000060448201526064015b60405180910390fd5b6000818152600260205260409020600381015460ff161561040c5760405162461bcd60e51b815260206004820152601260248201527113948e88185b1c9958591e4818db1bdcd95960721b60448201526064016103ab565b80546001600160a01b0316331461045a5760405162461bcd60e51b815260206004820152601260248201527127291d1034b73b30b634b21039b2b73232b960711b60448201526064016103ab565b806001015442116104a25760405162461bcd60e51b815260206004820152601260248201527113948e881a5cc81b9bdd08195e1c1a5c995960721b60448201526064016103ab565b6003808201805460ff1916600190811790915560028084015460009081526020838152604091829020825160c08101845281546001600160a01b039081168252958201548616928101929092529283015491810191909152928101546060840152600481015460808401526005015460ff16151560a08301528254610528929116610b06565b60405182907f7660e12662baa24fad81de3382739d381d9dd5b5da6063d5480bc4ca8c2a1c3890600090a25050565b6105618133610c12565b50565b6040516bffffffffffffffffffffffff193360601b16602082015260348101829052600090819060540160408051601f19818403018152908290528051602090910120635ec6154b60e01b825291506001600160a01b037f00000000000000000000000000000000000000000000000000000000000000001690635ec6154b906105f6903390309086906004016113c9565b6020604051808303816000875af1158015610615573d6000803e3d6000fd5b505050506040513d601f19601f8201168201806040525081019061063991906113ed565b604051637c74376760e11b81523060048201529092506001600160a01b0383169063f8e86ece90602401600060405180830381600087803b15801561067d57600080fd5b505af1158015610691573d6000803e3d6000fd5b5050505061069f8383610c12565b50919050565b60008083116106ed5760405162461bcd60e51b815260206004820152601460248201527327291d1034b73b30b634b210323ab930ba34b7b760611b60448201526064016103ab565b604051632142170760e11b81526001600160a01b038616906342842e0e9061071d903390309089906004016113c9565b600060405180830381600087803b15801561073757600080fd5b505af115801561074b573d6000803e3d6000fd5b50506003805492509050600061076083611420565b9190505560405160200161077691815260200190565b60408051808303601f19018152828252805160209182012060c0840183523384526001600160a01b038981168386019081528585018a8152606087018a8152608088018a8152600060a08a018181528782526001988990528982209a518b546001600160a01b0319908116918916919091178c559551988b018054909616989096169790971790935590516002880155516003870155516004860155516005909401805460ff191694151594909417909355905191925082917f0a35c16e6fca4188c48f68792f6f44b527a7ce80efc131cb4a109c1af99842839190a2949350505050565b6000816005811061086b57600080fd5b60089182820401919006600402915054906101000a900460e01b81565b6040516363a183d160e01b81523360048201527f00000000000000000000000000000000000000000000000000000000000000006001600160a01b0316906363a183d190602401602060405180830381865afa1580156108ec573d6000803e3d6000fd5b505050506040513d601f19601f8201168201806040525081019061091091906113a0565b6109555760405162461bcd60e51b815260206004820152601660248201527513948e881b9bdd0818481cdb585c9d081dd85b1b195d60521b60448201526064016103ab565b6000818152600260205260409020600381015460ff16156109ad5760405162461bcd60e51b815260206004820152601260248201527113948e88185b1c9958591e4818db1bdcd95960721b60448201526064016103ab565b6002818101546000908152600160208181526040808420815160c08101835281546001600160a01b03908116825282860154169381019390935294850154828201526003808601546060840152600480870154608085015260059096015460ff16151560a08401528601805460ff1916909317909255905163216e909760e01b8152928301859052602483019190915290339063216e909790604401600060405180830381600087803b158015610a6357600080fd5b505af1158015610a77573d6000803e3d6000fd5b50506040516339e1976560e11b8152600481018690523392506373c32eca9150602401600060405180830381600087803b158015610ab457600080fd5b505af1158015610ac8573d6000803e3d6000fd5b50505050610ad68133610b06565b60405183907fd202dee8689aa27fc750ad46b3ec9d7dc81f9d60301471a2f65189e416d3c8c590600090a2505050565b8060005b6005811015610bb3576000808260058110610b2757610b27611439565b6008810490910154602087015160405163d48337cb60e01b81526004600790941684026101000a90920460e01b93506001600160a01b0386169263d48337cb92610b74929186910161144f565b600060405180830381600087803b158015610b8e57600080fd5b505af1158015610ba2573d6000803e3d6000fd5b505060019093019250610b0a915050565b50604051632ed49ebf60e11b81523060048201526001600160a01b03821690635da93d7e90602401600060405180830381600087803b158015610bf557600080fd5b505af1158015610c09573d6000803e3d6000fd5b50505050505050565b6040516363a183d160e01b81526001600160a01b0382811660048301527f000000000000000000000000000000000000000000000000000000000000000016906363a183d190602401602060405180830381865afa158015610c78573d6000803e3d6000fd5b505050506040513d601f19601f82011682018060405250810190610c9c91906113a0565b610ce15760405162461bcd60e51b815260206004820152601660248201527513948e881b9bdd0818481cdb585c9d081dd85b1b195d60521b60448201526064016103ab565b600082815260016020818152604092839020835160c08101855281546001600160a01b03908116825293820154909316918301919091526002810154928201929092526003820154606082015260048201546080820181905260059092015460ff16151560a082015290341015610d915760405162461bcd60e51b81526020600482015260146024820152734e523a20496e73756666696369656e742066656560601b60448201526064016103ab565b8060a0015115610ddb5760405162461bcd60e51b815260206004820152601560248201527413948e88105b1c9958591e48199d5b199a5b1b1959605a1b60448201526064016103ab565b600160a082015280516080820151610df39190611022565b610e0c82826080015134610e079190611472565b611022565b80602001516001600160a01b03166342842e0e308484604001516040518463ffffffff1660e01b8152600401610e44939291906113c9565b600060405180830381600087803b158015610e5e57600080fd5b505af1158015610e72573d6000803e3d6000fd5b505050506000816060015142610e88919061148b565b90506000610e98838684876110be565b9050826001600087815260200190815260200160002060008201518160000160006101000a8154816001600160a01b0302191690836001600160a01b0316021790555060208201518160010160006101000a8154816001600160a01b0302191690836001600160a01b0316021790555060408201518160020155606082015181600301556080820151816004015560a08201518160050160006101000a81548160ff0219169083151502179055509050506040518060800160405280856001600160a01b03168152602001838152602001868152602001600015158152506002600083815260200190815260200160002060008201518160000160006101000a8154816001600160a01b0302191690836001600160a01b03160217905550602082015181600101556040820151816002015560608201518160030160006101000a81548160ff02191690831515021790555090505080857f429b967f5ab977b1b8621b7b7ba74d39ec557394031e96ef0fd06bd0428bcb2f60405160405180910390a35050505050565b804710156110455760405163cd78605960e01b81523060048201526024016103ab565b6000826001600160a01b03168260405160006040518083038185875af1925050503d8060008114611092576040519150601f19603f3d011682016040523d82523d6000602084013e611097565b606091505b50509050806110b957604051630a12f52160e11b815260040160405180910390fd5b505050565b600081815b600581101561116c5760008082600581106110e0576110e0611439565b600881049091015460208a01516040516329331d0b60e11b81526004600790941684026101000a90920460e01b93506001600160a01b038616926352663a169261112d929186910161144f565b600060405180830381600087803b15801561114757600080fd5b505af115801561115b573d6000803e3d6000fd5b5050600190930192506110c3915050565b50806001600160a01b031663ee70fc0b86306342842e0e60e01b878b600001518c604001516040516024016111a3939291906113c9565b60408051601f19818403018152918152602080830180516001600160e01b03166001600160e01b03199586161790528d0151905160e087901b90931683526111f49493926000908c9060040161149e565b6020604051808303816000875af1158015611213573d6000803e3d6000fd5b505050506040513d601f19601f820116820180604052508101906112379190611525565b9695505050505050565b60006020828403121561125357600080fd5b5035919050565b6001600160a01b038116811461056157600080fd5b634e487b7160e01b600052604160045260246000fd5b6000806000806080858703121561129b57600080fd5b84356112a68161125a565b935060208501356112b68161125a565b925060408501359150606085013567ffffffffffffffff808211156112da57600080fd5b818701915087601f8301126112ee57600080fd5b8135818111156113005761130061126f565b604051601f8201601f19908116603f011681019083821181831017156113285761132861126f565b816040528281528a602084870101111561134157600080fd5b82602086016020830137600060208483010152809550505050505092959194509250565b6000806000806080858703121561137b57600080fd5b84356113868161125a565b966020860135965060408601359560600135945092505050565b6000602082840312156113b257600080fd5b815180151581146113c257600080fd5b9392505050565b6001600160a01b039384168152919092166020820152604081019190915260600190565b6000602082840312156113ff57600080fd5b81516113c28161125a565b634e487b7160e01b600052601160045260246000fd5b6000600182016114325761143261140a565b5060010190565b634e487b7160e01b600052603260045260246000fd5b6001600160a01b039290921682526001600160e01b031916602082015260400190565b818103818111156114855761148561140a565b92915050565b808201808211156114855761148561140a565b8681526000602060018060a01b038816602084015260c0604084015286518060c085015260005b818110156114e15788810183015185820160e0015282016114c5565b50600060e0828601015260e0601f19601f8301168501019250505061151160608301866001600160a01b03169052565b608082019390935260a00152949350505050565b60006020828403121561153757600080fd5b505191905056fea2646970667358221220b23785cb339ef5b6ab2104822bc34ea645197a54b13f6033aace34ef2863ac1a64736f6c63430008180033",
  "linkReferences": {},
  "deployedLinkReferences": {}
}