{
  "_format": "hh-sol-artifact-1",
  "contractName": "SmartWalletV1",
  "sourceName": "contracts/SmartWalletV1.sol",
  "abi": [
    {
      "inputs": [],
      "stateMutability": "nonpayable",
      "type": "constructor"
    },
    {
      "inputs": [
        {
          "internalType": "address",
          "name": "target",
          "type": "address"
        }
      ],
      "name": "AddressEmptyCode",
      "type": "error"
    },
    {
      "inputs": [
        {
          "internalType": "address",
          "name": "account",
          "type": "address"
        }
      ],
      "name": "AddressInsufficientBalance",
      "type": "error"
    },
    {
      "inputs": [],
      "name": "ECDSAInvalidSignature",
      "type": "error"
    },
    {
      "inputs": [
        {
          "internalType": "uint256",
          "name": "length",
          "type": "uint256"
        }
      ],
      "name": "ECDSAInvalidSignatureLength",
      "type": "error"
    },
    {
      "inputs": [
        {
          "internalType": "bytes32",
          "name": "s",
          "type": "bytes32"
        }
      ],
      "name": "ECDSAInvalidSignatureS",
      "type": "error"
    },
    {
      "inputs": [
        {
          "internalType": "uint256",
          "name": "key",
          "type": "uint256"
        }
      ],
      "name": "EnumerableMapNonexistentKey",
      "type": "error"
    },
    {
      "inputs": [],
      "name": "FailedInnerCall",
      "type": "error"
    },
    {
      "inputs": [
        {
          "internalType": "address",
          "name": "account",
          "type": "address"
        },
        {
          "internalType": "uint256",
          "name": "currentNonce",
          "type": "uint256"
        }
      ],
      "name": "InvalidAccountNonce",
      "type": "error"
    },
    {
      "inputs": [],
      "name": "InvalidInitialization",
      "type": "error"
    },
    {
      "inputs": [],
      "name": "NotInitializing",
      "type": "error"
    },
    {
      "inputs": [
        {
          "internalType": "address",
          "name": "owner",
          "type": "address"
        }
      ],
      "name": "OwnableInvalidOwner",
      "type": "error"
    },
    {
      "inputs": [
        {
          "internalType": "address",
          "name": "account",
          "type": "address"
        }
      ],
      "name": "OwnableUnauthorizedAccount",
      "type": "error"
    },
    {
      "anonymous": false,
      "inputs": [],
      "name": "EIP712DomainChanged",
      "type": "event"
    },
    {
      "anonymous": false,
      "inputs": [
        {
          "indexed": false,
          "internalType": "uint64",
          "name": "version",
          "type": "uint64"
        }
      ],
      "name": "Initialized",
      "type": "event"
    },
    {
      "anonymous": false,
      "inputs": [
        {
          "indexed": true,
          "internalType": "address",
          "name": "previousOwner",
          "type": "address"
        },
        {
          "indexed": true,
          "internalType": "address",
          "name": "newOwner",
          "type": "address"
        }
      ],
      "name": "OwnershipTransferred",
      "type": "event"
    },
    {
      "inputs": [
        {
          "internalType": "address",
          "name": "addr",
          "type": "address"
        }
      ],
      "name": "addToAllowlist",
      "outputs": [],
      "stateMutability": "nonpayable",
      "type": "function"
    },
    {
      "inputs": [
        {
          "internalType": "address",
          "name": "addr",
          "type": "address"
        },
        {
          "internalType": "uint256",
          "name": "deadline",
          "type": "uint256"
        },
        {
          "internalType": "uint8",
          "name": "v",
          "type": "uint8"
        },
        {
          "internalType": "bytes32",
          "name": "r",
          "type": "bytes32"
        },
        {
          "internalType": "bytes32",
          "name": "s",
          "type": "bytes32"
        }
      ],
      "name": "addToAllowlistWithPermit",
      "outputs": [],
      "stateMutability": "nonpayable",
      "type": "function"
    },
    {
      "inputs": [
        {
          "internalType": "bytes32",
          "name": "externalId",
          "type": "bytes32"
        },
        {
          "internalType": "address",
          "name": "callback",
          "type": "address"
        },
        {
          "internalType": "bytes",
          "name": "executeData",
          "type": "bytes"
        },
        {
          "internalType": "address",
          "name": "executeTo",
          "type": "address"
        },
        {
          "internalType": "uint256",
          "name": "executeValue",
          "type": "uint256"
        },
        {
          "internalType": "uint256",
          "name": "executeAfter",
          "type": "uint256"
        }
      ],
      "name": "addToAutoExecute",
      "outputs": [
        {
          "internalType": "bytes32",
          "name": "id",
          "type": "bytes32"
        }
      ],
      "stateMutability": "nonpayable",
      "type": "function"
    },
    {
      "inputs": [],
      "name": "allowListOperator",
      "outputs": [
        {
          "internalType": "address",
          "name": "",
          "type": "address"
        }
      ],
      "stateMutability": "view",
      "type": "function"
    },
    {
      "inputs": [
        {
          "internalType": "address",
          "name": "",
          "type": "address"
        }
      ],
      "name": "allowlist",
      "outputs": [
        {
          "internalType": "bool",
          "name": "",
          "type": "bool"
        }
      ],
      "stateMutability": "view",
      "type": "function"
    },
    {
      "inputs": [],
      "name": "autoExecuteCounter",
      "outputs": [
        {
          "internalType": "uint256",
          "name": "",
          "type": "uint256"
        }
      ],
      "stateMutability": "view",
      "type": "function"
    },
    {
      "inputs": [
        {
          "internalType": "address",
          "name": "to",
          "type": "address"
        },
        {
          "internalType": "bytes4",
          "name": "funcSelector",
          "type": "bytes4"
        }
      ],
      "name": "blacklist",
      "outputs": [],
      "stateMutability": "nonpayable",
      "type": "function"
    },
    {
      "inputs": [
        {
          "internalType": "address[]",
          "name": "tos",
          "type": "address[]"
        },
        {
          "internalType": "bytes4[]",
          "name": "funcSelectors",
          "type": "bytes4[]"
        }
      ],
      "name": "blacklistBatch",
      "outputs": [],
      "stateMutability": "nonpayable",
      "type": "function"
    },
    {
      "inputs": [
        {
          "internalType": "address",
          "name": "",
          "type": "address"
        },
        {
          "internalType": "bytes4",
          "name": "",
          "type": "bytes4"
        }
      ],
      "name": "blacklistedFunctions",
      "outputs": [
        {
          "internalType": "bool",
          "name": "",
          "type": "bool"
        }
      ],
      "stateMutability": "view",
      "type": "function"
    },
    {
      "inputs": [
        {
          "internalType": "bytes",
          "name": "",
          "type": "bytes"
        }
      ],
      "name": "checkUpkeep",
      "outputs": [
        {
          "internalType": "bool",
          "name": "upkeepNeeded",
          "type": "bool"
        },
        {
          "internalType": "bytes",
          "name": "performData",
          "type": "bytes"
        }
      ],
      "stateMutability": "view",
      "type": "function"
    },
    {
      "inputs": [],
      "name": "eip712Domain",
      "outputs": [
        {
          "internalType": "bytes1",
          "name": "fields",
          "type": "bytes1"
        },
        {
          "internalType": "string",
          "name": "name",
          "type": "string"
        },
        {
          "internalType": "string",
          "name": "version",
          "type": "string"
        },
        {
          "internalType": "uint256",
          "name": "chainId",
          "type": "uint256"
        },
        {
          "internalType": "address",
          "name": "verifyingContract",
          "type": "address"
        },
        {
          "internalType": "bytes32",
          "name": "salt",
          "type": "bytes32"
        },
        {
          "internalType": "uint256[]",
          "name": "extensions",
          "type": "uint256[]"
        }
      ],
      "stateMutability": "view",
      "type": "function"
    },
    {
      "inputs": [
        {
          "internalType": "address",
          "name": "to",
          "type": "address"
        },
        {
          "internalType": "uint256",
          "name": "callValue",
          "type": "uint256"
        },
        {
          "internalType": "bytes",
          "name": "data",
          "type": "bytes"
        }
      ],
      "name": "execute",
      "outputs": [
        {
          "internalType": "bytes",
          "name": "returnData",
          "type": "bytes"
        }
      ],
      "stateMutability": "nonpayable",
      "type": "function"
    },
    {
      "inputs": [
        {
          "internalType": "address[]",
          "name": "tos",
          "type": "address[]"
        },
        {
          "internalType": "uint256[]",
          "name": "callValues",
          "type": "uint256[]"
        },
        {
          "internalType": "bytes[]",
          "name": "datas",
          "type": "bytes[]"
        }
      ],
      "name": "executeBatch",
      "outputs": [
        {
          "internalType": "bytes[]",
          "name": "returnDatas",
          "type": "bytes[]"
        }
      ],
      "stateMutability": "nonpayable",
      "type": "function"
    },
    {
      "inputs": [
        {
          "internalType": "bytes32",
          "name": "id",
          "type": "bytes32"
        },
        {
          "internalType": "bool",
          "name": "executeCallback",
          "type": "bool"
        }
      ],
      "name": "executeRevert",
      "outputs": [],
      "stateMutability": "nonpayable",
      "type": "function"
    },
    {
      "inputs": [
        {
          "internalType": "bytes32",
          "name": "",
          "type": "bytes32"
        }
      ],
      "name": "extenralIdsToExecutesIds",
      "outputs": [
        {
          "internalType": "uint256",
          "name": "",
          "type": "uint256"
        }
      ],
      "stateMutability": "view",
      "type": "function"
    },
    {
      "inputs": [
        {
          "components": [
            {
              "internalType": "address",
              "name": "owner",
              "type": "address"
            },
            {
              "internalType": "address",
              "name": "allowlistOperator",
              "type": "address"
            },
            {
              "internalType": "address",
              "name": "linkToken",
              "type": "address"
            },
            {
              "internalType": "address",
              "name": "linkTokenNative",
              "type": "address"
            },
            {
              "internalType": "address",
              "name": "linkTokenPegSwap",
              "type": "address"
            },
            {
              "internalType": "address",
              "name": "clRegistrar",
              "type": "address"
            },
            {
              "internalType": "address",
              "name": "clRegistry",
              "type": "address"
            },
            {
              "internalType": "address",
              "name": "uniswapV3Router",
              "type": "address"
            },
            {
              "internalType": "address",
              "name": "wethToken",
              "type": "address"
            },
            {
              "internalType": "uint256",
              "name": "linkFeePerExecution",
              "type": "uint256"
            },
            {
              "internalType": "bytes",
              "name": "wethToLinkSwapPath",
              "type": "bytes"
            }
          ],
          "internalType": "struct ISmartWalletFactory.CreateWalletParams",
          "name": "createParams",
          "type": "tuple"
        }
      ],
      "name": "initialize",
      "outputs": [],
      "stateMutability": "nonpayable",
      "type": "function"
    },
    {
      "inputs": [],
      "name": "linkFeePerExecution",
      "outputs": [
        {
          "internalType": "uint256",
          "name": "",
          "type": "uint256"
        }
      ],
      "stateMutability": "view",
      "type": "function"
    },
    {
      "inputs": [
        {
          "internalType": "address",
          "name": "owner",
          "type": "address"
        }
      ],
      "name": "nonces",
      "outputs": [
        {
          "internalType": "uint256",
          "name": "",
          "type": "uint256"
        }
      ],
      "stateMutability": "view",
      "type": "function"
    },
    {
      "inputs": [
        {
          "internalType": "address",
          "name": "",
          "type": "address"
        },
        {
          "internalType": "address",
          "name": "",
          "type": "address"
        },
        {
          "internalType": "uint256[]",
          "name": "",
          "type": "uint256[]"
        },
        {
          "internalType": "uint256[]",
          "name": "",
          "type": "uint256[]"
        },
        {
          "internalType": "bytes",
          "name": "",
          "type": "bytes"
        }
      ],
      "name": "onERC1155BatchReceived",
      "outputs": [
        {
          "internalType": "bytes4",
          "name": "",
          "type": "bytes4"
        }
      ],
      "stateMutability": "nonpayable",
      "type": "function"
    },
    {
      "inputs": [
        {
          "internalType": "address",
          "name": "",
          "type": "address"
        },
        {
          "internalType": "address",
          "name": "",
          "type": "address"
        },
        {
          "internalType": "uint256",
          "name": "",
          "type": "uint256"
        },
        {
          "internalType": "uint256",
          "name": "",
          "type": "uint256"
        },
        {
          "internalType": "bytes",
          "name": "",
          "type": "bytes"
        }
      ],
      "name": "onERC1155Received",
      "outputs": [
        {
          "internalType": "bytes4",
          "name": "",
          "type": "bytes4"
        }
      ],
      "stateMutability": "nonpayable",
      "type": "function"
    },
    {
      "inputs": [
        {
          "internalType": "address",
          "name": "",
          "type": "address"
        },
        {
          "internalType": "address",
          "name": "",
          "type": "address"
        },
        {
          "internalType": "uint256",
          "name": "",
          "type": "uint256"
        },
        {
          "internalType": "bytes",
          "name": "",
          "type": "bytes"
        }
      ],
      "name": "onERC721Received",
      "outputs": [
        {
          "internalType": "bytes4",
          "name": "",
          "type": "bytes4"
        }
      ],
      "stateMutability": "nonpayable",
      "type": "function"
    },
    {
      "inputs": [],
      "name": "owner",
      "outputs": [
        {
          "internalType": "address",
          "name": "",
          "type": "address"
        }
      ],
      "stateMutability": "view",
      "type": "function"
    },
    {
      "inputs": [
        {
          "internalType": "bytes",
          "name": "performData",
          "type": "bytes"
        }
      ],
      "name": "performUpkeep",
      "outputs": [],
      "stateMutability": "nonpayable",
      "type": "function"
    },
    {
      "inputs": [
        {
          "internalType": "bytes32",
          "name": "id",
          "type": "bytes32"
        }
      ],
      "name": "removeAutoExecute",
      "outputs": [],
      "stateMutability": "nonpayable",
      "type": "function"
    },
    {
      "inputs": [
        {
          "internalType": "address",
          "name": "addr",
          "type": "address"
        }
      ],
      "name": "removeFromAllowlist",
      "outputs": [],
      "stateMutability": "nonpayable",
      "type": "function"
    },
    {
      "inputs": [
        {
          "internalType": "address",
          "name": "to",
          "type": "address"
        },
        {
          "internalType": "bytes4",
          "name": "funcSelector",
          "type": "bytes4"
        }
      ],
      "name": "removeFromBlacklist",
      "outputs": [],
      "stateMutability": "nonpayable",
      "type": "function"
    },
    {
      "inputs": [
        {
          "internalType": "address[]",
          "name": "tos",
          "type": "address[]"
        },
        {
          "internalType": "bytes4[]",
          "name": "funcSelectors",
          "type": "bytes4[]"
        }
      ],
      "name": "removeFromBlacklistBatch",
      "outputs": [],
      "stateMutability": "nonpayable",
      "type": "function"
    },
    {
      "inputs": [],
      "name": "renounceOwnership",
      "outputs": [],
      "stateMutability": "nonpayable",
      "type": "function"
    },
    {
      "inputs": [
        {
          "internalType": "bytes4",
          "name": "interfaceId",
          "type": "bytes4"
        }
      ],
      "name": "supportsInterface",
      "outputs": [
        {
          "internalType": "bool",
          "name": "",
          "type": "bool"
        }
      ],
      "stateMutability": "view",
      "type": "function"
    },
    {
      "inputs": [
        {
          "internalType": "address",
          "name": "newOwner",
          "type": "address"
        }
      ],
      "name": "transferOwnership",
      "outputs": [],
      "stateMutability": "nonpayable",
      "type": "function"
    },
    {
      "inputs": [],
      "name": "upkeepId",
      "outputs": [
        {
          "internalType": "uint256",
          "name": "",
          "type": "uint256"
        }
      ],
      "stateMutability": "view",
      "type": "function"
    },
    {
      "stateMutability": "payable",
      "type": "receive"
    }
  ],
  "bytecode": "0x60806040523480156200001157600080fd5b506200001c62000022565b620000d6565b7ff0c57e16840df040f15088dc2f81fe391c3923bec73e23a9662efc9c229c6a00805468010000000000000000900460ff1615620000735760405163f92ee8a960e01b815260040160405180910390fd5b80546001600160401b0390811614620000d35780546001600160401b0319166001600160401b0390811782556040519081527fc7f505b2f371ae2175ee4913f4499e1f2633a7b5936321eed1cdaeb6115181d29060200160405180910390a15b50565b6139eb80620000e66000396000f3fe6080604052600436106101dc5760003560e01c806384b0196e11610102578063ca7fecd611610095578063f22dc14e11610064578063f22dc14e14610613578063f23a6e6114610633578063f2fde38b1461065f578063f8e86ece1461067f57600080fd5b8063ca7fecd6146105a7578063d2aa789f146105bd578063d48337cb146105d3578063ee70fc0b146105f357600080fd5b8063b61d27f6116100d1578063b61d27f6146104fd578063b9af9df91461052a578063bc197c8114610540578063bc2780281461056c57600080fd5b806384b0196e146104705780638da5cb5b14610498578063a7cd52cb146104ad578063a83518fe146104dd57600080fd5b806352663a161161017a5780636f6bc0cb116101495780636f6bc0cb146103ae578063715018a6146103e657806373c32eca146103fb5780637ecebe001461041b57600080fd5b806352663a16146103055780635da93d7e146103255780636e04ff0d146103455780636e9f509a1461037357600080fd5b8063216e9097116101b6578063216e9097146102785780634585e33b146102985780634757f2f5146102b857806347e1da2a146102d857600080fd5b806301bd118f146101e857806301ffc9a71461020a578063150b7a021461023f57600080fd5b366101e357005b600080fd5b3480156101f457600080fd5b50610208610203366004612c39565b61069f565b005b34801561021657600080fd5b5061022a610225366004612cc1565b6107af565b60405190151581526020015b60405180910390f35b34801561024b57600080fd5b5061025f61025a366004612da8565b6107e6565b6040516001600160e01b03199091168152602001610236565b34801561028457600080fd5b50610208610293366004612e1d565b6107f7565b3480156102a457600080fd5b506102086102b3366004612e8e565b6108be565b3480156102c457600080fd5b506102086102d3366004612ecf565b610946565b3480156102e457600080fd5b506102f86102f3366004612f25565b610adf565b604051610236919061300e565b34801561031157600080fd5b50610208610320366004613072565b610c08565b34801561033157600080fd5b506102086103403660046130a5565b610cc0565b34801561035157600080fd5b50610365610360366004612e8e565b610d31565b6040516102369291906130c0565b34801561037f57600080fd5b506103a061038e3660046130db565b60036020526000908152604090205481565b604051908152602001610236565b3480156103ba57600080fd5b506004546103ce906001600160a01b031681565b6040516001600160a01b039091168152602001610236565b3480156103f257600080fd5b50610208610dd6565b34801561040757600080fd5b506102086104163660046130db565b610dea565b34801561042757600080fd5b506103a06104363660046130a5565b6001600160a01b031660009081527f5ab42ced628888259c08ac98db1eb0cf702fc1501344311d8b100cd1bfe4bb00602052604090205490565b34801561047c57600080fd5b50610485610e7d565b60405161023697969594939291906130f4565b3480156104a457600080fd5b506103ce610f29565b3480156104b957600080fd5b5061022a6104c83660046130a5565b60016020526000908152604090205460ff1681565b3480156104e957600080fd5b506102086104f836600461318d565b610f57565b34801561050957600080fd5b5061051d6105183660046131c8565b611262565b6040516102369190613215565b34801561053657600080fd5b506103a060005481565b34801561054c57600080fd5b5061025f61055b3660046132a7565b63bc197c8160e01b95945050505050565b34801561057857600080fd5b5061022a610587366004613072565b600260209081526000928352604080842090915290825290205460ff1681565b3480156105b357600080fd5b506103a060055481565b3480156105c957600080fd5b506103a060065481565b3480156105df57600080fd5b506102086105ee366004613072565b6112d1565b3480156105ff57600080fd5b506103a061060e366004613350565b611338565b34801561061f57600080fd5b5061020861062e366004612c39565b611543565b34801561063f57600080fd5b5061025f61064e3660046133d1565b63f23a6e6160e01b95945050505050565b34801561066b57600080fd5b5061020861067a3660046130a5565b6116ba565b34801561068b57600080fd5b5061020861069a3660046130a5565b6116f8565b3360009081526001602052604090205460ff166106d75760405162461bcd60e51b81526004016106ce90613435565b60405180910390fd5b8281146106f65760405162461bcd60e51b81526004016106ce90613463565b60005b838110156107a85760006002600087878581811061071957610719613490565b905060200201602081019061072e91906130a5565b6001600160a01b03166001600160a01b03168152602001908152602001600020600085858581811061076257610762613490565b90506020020160208101906107779190612cc1565b6001600160e01b03191681526020810191909152604001600020805460ff19169115159190911790556001016106f9565b5050505050565b60006001600160e01b03198216630271189760e51b14806107e057506301ffc9a760e01b6001600160e01b03198316145b92915050565b630a85bd0160e11b5b949350505050565b3360009081526001602052604090205460ff166108265760405162461bcd60e51b81526004016106ce90613435565b600082815260036020526040902054806108725760405162461bcd60e51b815260206004820152600d60248201526c14d5ce881b9bdd08195e1a5cdd609a1b60448201526064016106ce565b600061087f600c8361176f565b60208101519091506001600160a01b031633146108ae5760405162461bcd60e51b81526004016106ce906134a6565b6108b881846118f5565b50505050565b60006108cc828401846130db565b905060006108db600c8361176f565b90508060c0015142116109305760405162461bcd60e51b815260206004820152601760248201527f53573a20746f206561726c7920746f206578656375746500000000000000000060448201526064016106ce565b61093b8160016118f5565b6107a8600c83611a03565b4284101561098e5760405162461bcd60e51b815260206004820152601560248201527453573a2065787069726564207369676e617475726560581b60448201526064016106ce565b6004546001600160a01b031660009081527f5ab42ced628888259c08ac98db1eb0cf702fc1501344311d8b100cd1bfe4bb00602052604081208054600181019091557f06ea063c304aa8c971f8a1bf2ea47d4306e6ccc987a0cb6b88f69a909d934f4690879087604051602001610a2794939291909384526001600160a01b039290921660208401526040830152606082015260800190565b6040516020818303038152906040528051906020012090506000610a4a82611a71565b90506000610a5a82878787611a9e565b6004549091506001600160a01b03808316911614610aaf5760405162461bcd60e51b815260206004820152601260248201527129ab9d1034b73b30b634b21039b4b3b732b960711b60448201526064016106ce565b5050506001600160a01b039094166000908152600160208190526040909120805460ff1916909117905550505050565b6060610ae9611acc565b8584148015610af757508582145b610b135760405162461bcd60e51b81526004016106ce90613463565b856001600160401b03811115610b2b57610b2b612cf3565b604051908082528060200260200182016040528015610b5e57816020015b6060815260200190600190039081610b495790505b50905060005b86811015610bfd57610bd8888883818110610b8157610b81613490565b9050602002016020810190610b9691906130a5565b878784818110610ba857610ba8613490565b90506020020135868685818110610bc157610bc1613490565b9050602002810190610bd391906134d2565b611afe565b828281518110610bea57610bea613490565b6020908102919091010152600101610b64565b509695505050505050565b3360009081526001602052604090205460ff16610c375760405162461bcd60e51b81526004016106ce90613435565b6001600160e01b03198116610c855760405162461bcd60e51b815260206004820152601460248201527329ab9d1034b73b30b634b21039b2b632b1ba37b960611b60448201526064016106ce565b6001600160a01b0390911660009081526002602090815260408083206001600160e01b0319909416835292905220805460ff19166001179055565b6004546001600160a01b03163314610d105760405162461bcd60e51b815260206004820152601360248201527229ab9d103737ba1030b71037b832b930ba37b960691b60448201526064016106ce565b6001600160a01b03166000908152600160205260409020805460ff19169055565b600060606000610d41600c611c0f565b905060005b8151811015610dcc576000828281518110610d6357610d63613490565b602002602001015190506000610d8382600c61176f90919063ffffffff16565b90508060c00151421115610dc257600182604051602001610da691815260200190565b6040516020818303038152906040529550955050505050610dcf565b5050600101610d46565b50505b9250929050565b610dde611acc565b610de86000611c1a565b565b60008181526003602052604090205480610e365760405162461bcd60e51b815260206004820152600d60248201526c14d5ce881b9bdd08195e1a5cdd609a1b60448201526064016106ce565b6000610e43600c8361176f565b60208101519091506001600160a01b03163314610e725760405162461bcd60e51b81526004016106ce906134a6565b6108b8600c83611a03565b600060608082808083816000805160206139968339815191528054909150158015610eaa57506001810154155b610eee5760405162461bcd60e51b81526020600482015260156024820152741152540dcc4c8e88155b9a5b9a5d1a585b1a5e9959605a1b60448201526064016106ce565b610ef6611c8b565b610efe611d4e565b60408051600080825260208201909252600f60f81b9c939b5091995046985030975095509350915050565b7f9016d09d72d40fdae2fd8ceac6b6234c7706214fd39c1cd1e609a0528c199300546001600160a01b031690565b7ff0c57e16840df040f15088dc2f81fe391c3923bec73e23a9662efc9c229c6a008054600160401b810460ff1615906001600160401b0316600081158015610f9c5750825b90506000826001600160401b03166001148015610fb85750303b155b905081158015610fc6575080155b15610fe45760405163f92ee8a960e01b815260040160405180910390fd5b845467ffffffffffffffff19166001178555831561100e57845460ff60401b1916600160401b1785555b61102361101e60208801886130a5565b611d8d565b61106b6040518060400160405280600d81526020016c536d61727457616c6c6574563160981b815250604051806040016040528060018152602001603160f81b815250611d9e565b61107b60408701602088016130a5565b600480546001600160a01b0319166001600160a01b03929092169190911790556110ac610100870160e088016130a5565b600f80546001600160a01b0319166001600160a01b03929092169190911790556110de610120870161010088016130a5565b601080546001600160a01b0319166001600160a01b039290921691909117905561110c6101408701876134d2565b60119161111a91908361359a565b5061112b60a08701608088016130a5565b600780546001600160a01b0319166001600160a01b039290921691909117905561115b60808701606088016130a5565b600880546001600160a01b0319166001600160a01b039290921691909117905561118b60608701604088016130a5565b600980546001600160a01b0319166001600160a01b03929092169190911790556111bb60c0870160a088016130a5565b600a80546001600160a01b0319166001600160a01b03929092169190911790556111eb60e0870160c088016130a5565b600b80546001600160a01b0319166001600160a01b0392909216919091179055610120860135600055831561125a57845460ff60401b19168555604051600181527fc7f505b2f371ae2175ee4913f4499e1f2633a7b5936321eed1cdaeb6115181d29060200160405180910390a15b505050505050565b606061126c611acc565b306001600160a01b038616036112bc5760405162461bcd60e51b815260206004820152601560248201527453573a20746f2063616e6e6f74206265207468697360581b60448201526064016106ce565b6112c885858585611afe565b95945050505050565b3360009081526001602052604090205460ff166113005760405162461bcd60e51b81526004016106ce90613435565b6001600160a01b0390911660009081526002602090815260408083206001600160e01b0319909416835292905220805460ff19169055565b6000611342610f29565b6001600160a01b0316336001600160a01b0316148061137057503360009081526001602052604090205460ff165b61138c5760405162461bcd60e51b81526004016106ce906134a6565b6040516bffffffffffffffffffffffff193360601b166020820152603481018990526054016040516020818303038152906040528051906020012090504282116114185760405162461bcd60e51b815260206004820152601860248201527f53573a20696e76616c696420657865637574652074696d65000000000000000060448201526064016106ce565b6000818152600360205260409020541561146b5760405162461bcd60e51b815260206004820152601460248201527314d5ce881a5908185b1c9958591e48195e1a5cdd60621b60448201526064016106ce565b611476600054611db0565b60006040518060e00160405280838152602001336001600160a01b03168152602001896001600160a01b0316815260200188888080601f01602080910402602001604051908101604052809392919081815260200183838082843760009201829052509385525050506001600160a01b038816602083015260408201879052606090910185905260058054929350909182906115119061366f565b918290555060008481526003602052604090208190559050611535600c8284612247565b505050979650505050505050565b3360009081526001602052604090205460ff166115725760405162461bcd60e51b81526004016106ce90613435565b8281146115915760405162461bcd60e51b81526004016106ce90613463565b60005b838110156107a85760008383838181106115b0576115b0613490565b90506020020160208101906115c59190612cc1565b6001600160e01b031916036116135760405162461bcd60e51b815260206004820152601460248201527329ab9d1034b73b30b634b21039b2b632b1ba37b960611b60448201526064016106ce565b60016002600087878581811061162b5761162b613490565b905060200201602081019061164091906130a5565b6001600160a01b03166001600160a01b03168152602001908152602001600020600085858581811061167457611674613490565b90506020020160208101906116899190612cc1565b6001600160e01b03191681526020810191909152604001600020805460ff1916911515919091179055600101611594565b6116c2611acc565b6001600160a01b0381166116ec57604051631e4fbdf760e01b8152600060048201526024016106ce565b6116f581611c1a565b50565b6004546001600160a01b031633146117485760405162461bcd60e51b815260206004820152601360248201527229ab9d103737ba1030b71037b832b930ba37b960691b60448201526064016106ce565b6001600160a01b03166000908152600160208190526040909120805460ff19169091179055565b6040805160e0810182526000808252602082018190529181018290526060808201526080810182905260a0810182905260c08101919091526000828152600280850160209081526040808420815160e0810183528154815260018201546001600160a01b039081169482019490945293810154909216908301526003810180546060840191906117fe90613518565b80601f016020809104026020016040519081016040528092919081815260200182805461182a90613518565b80156118775780601f1061184c57610100808354040283529160200191611877565b820191906000526020600020905b81548152906001019060200180831161185a57829003601f168201915b505050918352505060048201546001600160a01b039081166020808401919091526005840154604084015260069093015460609092019190915290820151919250161580156118cd57506118cb84846122f7565b155b156118ee57604051630e8152f560e21b8152600481018490526024016106ce565b9392505050565b60608201515115611960578160a0015160000361193657611930826060015183608001516001600160a01b031661230390919063ffffffff16565b50611972565b61193082606001518360a0015184608001516001600160a01b031661230d9092919063ffffffff16565b61197282608001518360a001516123aa565b60408201516001600160a01b03161580159061198b5750805b156119ff576119fd82604001516001600160a01b0316631ada3ad984600001516040516024016119bd91815260200190565b60408051601f198184030181529181526020820180516001600160e01b031660e09490941b93909317909252908501516001600160a01b03169150612303565b505b5050565b60008181526002808401602052604082208281556001810180546001600160a01b0319908116909155918101805490921690915581611a456003830182612ba7565b506004810180546001600160a01b03191690556000600582018190556006909101556118ee8383612441565b60006107e0611a7e61244d565b8360405161190160f01b8152600281019290925260228201526042902090565b600080600080611ab08888888861245c565b925092509250611ac0828261252b565b50909695505050505050565b33611ad5610f29565b6001600160a01b031614610de85760405163118cdaa760e01b81523360048201526024016106ce565b6060306001600160a01b03861603611b505760405162461bcd60e51b815260206004820152601560248201527453573a20746f2063616e6e6f74206265207468697360581b60448201526064016106ce565b611b5b8584846125e4565b8115611c055783600003611bba57611bb383838080601f016020809104026020016040519081016040528093929190818152602001838380828437600092019190915250506001600160a01b03891692915050612303565b90506107ef565b611bb383838080601f01602080910402602001604051908101604052809392919081815260200183838082843760009201919091525050506001600160a01b0388169190508661230d565b6107ef85856123aa565b60606107e08261268b565b7f9016d09d72d40fdae2fd8ceac6b6234c7706214fd39c1cd1e609a0528c19930080546001600160a01b031981166001600160a01b03848116918217845560405192169182907f8be0079c531659141344cd1fd0a4f28419497f9722a3daafe3b4186f6b6457e090600090a3505050565b7fa16a46d94261c7517cc8ff89f61c0ce93598e3c849801011dee649a6a557d102805460609160008051602061399683398151915291611cca90613518565b80601f0160208091040260200160405190810160405280929190818152602001828054611cf690613518565b8015611d435780601f10611d1857610100808354040283529160200191611d43565b820191906000526020600020905b815481529060010190602001808311611d2657829003601f168201915b505050505091505090565b7fa16a46d94261c7517cc8ff89f61c0ce93598e3c849801011dee649a6a557d103805460609160008051602061399683398151915291611cca90613518565b611d95612698565b6116f5816126e1565b611da6612698565b6119ff82826126e9565b6008546040516370a0823160e01b81523060048201526000916001600160a01b0316906370a0823190602401602060405180830381865afa158015611df9573d6000803e3d6000fd5b505050506040513d601f19601f82011682018060405250810190611e1d9190613688565b905081811015611fde576000611e3382846136a1565b600f5460118054929350611edc926001600160a01b0390921691611e5690613518565b80601f0160208091040260200160405190810160405280929190818152602001828054611e8290613518565b8015611ecf5780601f10611ea457610100808354040283529160200191611ecf565b820191906000526020600020905b815481529060010190602001808311611eb257829003601f168201915b505050505030844761274a565b506007546001600160a01b031615611fdc5760095460075460405163095ea7b360e01b81526001600160a01b0391821660048201526024810184905291169063095ea7b3906044016020604051808303816000875af1158015611f43573d6000803e3d6000fd5b505050506040513d601f19601f82011682018060405250810190611f6791906136b4565b50600754600954600854604051632b7f092360e01b8152600481018590526001600160a01b0392831660248201529082166044820152911690632b7f092390606401600060405180830381600087803b158015611fc357600080fd5b505af1158015611fd7573d6000803e3d6000fd5b505050505b505b60065460000361216057600854600a5460405163095ea7b360e01b81526001600160a01b0391821660048201526024810185905291169063095ea7b3906044016020604051808303816000875af115801561203d573d6000803e3d6000fd5b505050506040513d601f19601f8201168201806040525081019061206191906136b4565b5060408051610160810182526000610140820181815282528251602081810185528282528084019190915230838501819052624c4b406060850152608084015260a083018290528351808201855282815260c08401528351808201855282815260e084015283519081018452818152610100830152546001600160601b0316610120820152600a549151633f678e1160e01b815290916001600160a01b031690633f678e11906121159084906004016136d1565b6020604051808303816000875af1158015612134573d6000803e3d6000fd5b505050506040513d601f19601f820116820180604052508101906121589190613688565b600655505050565b600854600b5460405163095ea7b360e01b81526001600160a01b0391821660048201526024810185905291169063095ea7b3906044016020604051808303816000875af11580156121b5573d6000803e3d6000fd5b505050506040513d601f19601f820116820180604052508101906121d991906136b4565b50600b5460065460405163948108f760e01b815260048101919091526001600160601b03841660248201526001600160a01b039091169063948108f790604401600060405180830381600087803b15801561223357600080fd5b505af115801561125a573d6000803e3d6000fd5b600082815260028481016020908152604080842085518155918501516001830180546001600160a01b03199081166001600160a01b0393841617909155918601519383018054909216931692909217909155606083015183919060038201906122b090826137e6565b5060808201516004820180546001600160a01b0319166001600160a01b0390921691909117905560a0820151600582015560c0909101516006909101556107ef848461283e565b60006118ee838361284a565b60606118ee838360005b6060814710156123325760405163cd78605960e01b81523060048201526024016106ce565b600080856001600160a01b0316848660405161234e91906138a5565b60006040518083038185875af1925050503d806000811461238b576040519150601f19603f3d011682016040523d82523d6000602084013e612390565b606091505b50915091506123a0868383612862565b9695505050505050565b804710156123cd5760405163cd78605960e01b81523060048201526024016106ce565b6000826001600160a01b03168260405160006040518083038185875af1925050503d806000811461241a576040519150601f19603f3d011682016040523d82523d6000602084013e61241f565b606091505b50509050806119fd57604051630a12f52160e11b815260040160405180910390fd5b60006118ee83836128be565b60006124576129b1565b905090565b600080807f7fffffffffffffffffffffffffffffff5d576e7357a4501ddfe92f46681b20a08411156124975750600091506003905082612521565b604080516000808252602082018084528a905260ff891692820192909252606081018790526080810186905260019060a0016020604051602081039080840390855afa1580156124eb573d6000803e3d6000fd5b5050604051601f1901519150506001600160a01b03811661251757506000925060019150829050612521565b9250600091508190505b9450945094915050565b600082600381111561253f5761253f6138c1565b03612548575050565b600182600381111561255c5761255c6138c1565b0361257a5760405163f645eedf60e01b815260040160405180910390fd5b600282600381111561258e5761258e6138c1565b036125af5760405163fce698f760e01b8152600481018290526024016106ce565b60038260038111156125c3576125c36138c1565b036119ff576040516335e2f38360e21b8152600481018290526024016106ce565b60008190036125f257505050565b600061260160048284866138d7565b61260a91613901565b6001600160a01b03851660009081526002602090815260408083206001600160e01b03198516845290915290205490915060ff16156108b85760405162461bcd60e51b815260206004820152601760248201527f43573a2066756e6320697320626c61636b6c697374656400000000000000000060448201526064016106ce565b606060006118ee83612a25565b7ff0c57e16840df040f15088dc2f81fe391c3923bec73e23a9662efc9c229c6a0054600160401b900460ff16610de857604051631afcd79f60e31b815260040160405180910390fd5b6116c2612698565b6126f1612698565b6000805160206139968339815191527fa16a46d94261c7517cc8ff89f61c0ce93598e3c849801011dee649a6a557d10261272b84826137e6565b506003810161273a83826137e6565b5060008082556001909101555050565b604080516080810182528581526001600160a01b0380861660208301528183018590526060820184905291516304dc09a360e11b81526000928816906309b8134690859061279c908590600401613931565b60206040518083038185885af11580156127ba573d6000803e3d6000fd5b50505050506040513d601f19601f820116820180604052508101906127df9190613688565b9150866001600160a01b03166312210e8a6040518163ffffffff1660e01b8152600401600060405180830381600087803b15801561281c57600080fd5b505af1158015612830573d6000803e3d6000fd5b505050505095945050505050565b60006118ee8383612a81565b600081815260018301602052604081205415156118ee565b6060826128775761287282612ad0565b6118ee565b815115801561288e57506001600160a01b0384163b155b156128b757604051639996b31560e01b81526001600160a01b03851660048201526024016106ce565b50806118ee565b600081815260018301602052604081205480156129a75760006128e26001836136a1565b85549091506000906128f6906001906136a1565b905080821461295b57600086600001828154811061291657612916613490565b906000526020600020015490508087600001848154811061293957612939613490565b6000918252602080832090910192909255918252600188019052604090208390555b855486908061296c5761296c61397f565b6001900381819060005260206000200160009055905585600101600086815260200190815260200160002060009055600193505050506107e0565b60009150506107e0565b60007f8b73c3c69bb8fe3d512ecc4cf759cc79239f7b179b0ffacaa9a75d522b39400f6129dc612af9565b6129e4612b63565b60408051602081019490945283019190915260608201524660808201523060a082015260c00160405160208183030381529060405280519060200120905090565b606081600001805480602002602001604051908101604052809291908181526020018280548015612a7557602002820191906000526020600020905b815481526020019060010190808311612a61575b50505050509050919050565b6000818152600183016020526040812054612ac8575081546001818101845560008481526020808220909301849055845484825282860190935260409020919091556107e0565b5060006107e0565b805115612ae05780518082602001fd5b604051630a12f52160e11b815260040160405180910390fd5b600060008051602061399683398151915281612b13611c8b565b805190915015612b2b57805160209091012092915050565b81548015612b3a579392505050565b7fc5d2460186f7233c927e7db2dcc703c0e500b653ca82273b7bfad8045d85a470935050505090565b600060008051602061399683398151915281612b7d611d4e565b805190915015612b9557805160209091012092915050565b60018201548015612b3a579392505050565b508054612bb390613518565b6000825580601f10612bc3575050565b601f0160209004906000526020600020908101906116f591905b80821115612bf15760008155600101612bdd565b5090565b60008083601f840112612c0757600080fd5b5081356001600160401b03811115612c1e57600080fd5b6020830191508360208260051b8501011115610dcf57600080fd5b60008060008060408587031215612c4f57600080fd5b84356001600160401b0380821115612c6657600080fd5b612c7288838901612bf5565b90965094506020870135915080821115612c8b57600080fd5b50612c9887828801612bf5565b95989497509550505050565b80356001600160e01b031981168114612cbc57600080fd5b919050565b600060208284031215612cd357600080fd5b6118ee82612ca4565b80356001600160a01b0381168114612cbc57600080fd5b634e487b7160e01b600052604160045260246000fd5b604051601f8201601f191681016001600160401b0381118282101715612d3157612d31612cf3565b604052919050565b600082601f830112612d4a57600080fd5b81356001600160401b03811115612d6357612d63612cf3565b612d76601f8201601f1916602001612d09565b818152846020838601011115612d8b57600080fd5b816020850160208301376000918101602001919091529392505050565b60008060008060808587031215612dbe57600080fd5b612dc785612cdc565b9350612dd560208601612cdc565b92506040850135915060608501356001600160401b03811115612df757600080fd5b612e0387828801612d39565b91505092959194509250565b80151581146116f557600080fd5b60008060408385031215612e3057600080fd5b823591506020830135612e4281612e0f565b809150509250929050565b60008083601f840112612e5f57600080fd5b5081356001600160401b03811115612e7657600080fd5b602083019150836020828501011115610dcf57600080fd5b60008060208385031215612ea157600080fd5b82356001600160401b03811115612eb757600080fd5b612ec385828601612e4d565b90969095509350505050565b600080600080600060a08688031215612ee757600080fd5b612ef086612cdc565b945060208601359350604086013560ff81168114612f0d57600080fd5b94979396509394606081013594506080013592915050565b60008060008060008060608789031215612f3e57600080fd5b86356001600160401b0380821115612f5557600080fd5b612f618a838b01612bf5565b90985096506020890135915080821115612f7a57600080fd5b612f868a838b01612bf5565b90965094506040890135915080821115612f9f57600080fd5b50612fac89828a01612bf5565b979a9699509497509295939492505050565b60005b83811015612fd9578181015183820152602001612fc1565b50506000910152565b60008151808452612ffa816020860160208601612fbe565b601f01601f19169290920160200192915050565b600060208083016020845280855180835260408601915060408160051b87010192506020870160005b8281101561306557603f19888603018452613053858351612fe2565b94509285019290850190600101613037565b5092979650505050505050565b6000806040838503121561308557600080fd5b61308e83612cdc565b915061309c60208401612ca4565b90509250929050565b6000602082840312156130b757600080fd5b6118ee82612cdc565b82151581526040602082015260006107ef6040830184612fe2565b6000602082840312156130ed57600080fd5b5035919050565b60ff60f81b881681526000602060e0602084015261311560e084018a612fe2565b8381036040850152613127818a612fe2565b606085018990526001600160a01b038816608086015260a0850187905284810360c08601528551808252602080880193509091019060005b8181101561317b5783518352928401929184019160010161315f565b50909c9b505050505050505050505050565b60006020828403121561319f57600080fd5b81356001600160401b038111156131b557600080fd5b820161016081850312156118ee57600080fd5b600080600080606085870312156131de57600080fd5b6131e785612cdc565b93506020850135925060408501356001600160401b0381111561320957600080fd5b612c9887828801612e4d565b6020815260006118ee6020830184612fe2565b600082601f83011261323957600080fd5b813560206001600160401b0382111561325457613254612cf3565b8160051b613263828201612d09565b928352848101820192828101908785111561327d57600080fd5b83870192505b8483101561329c57823582529183019190830190613283565b979650505050505050565b600080600080600060a086880312156132bf57600080fd5b6132c886612cdc565b94506132d660208701612cdc565b935060408601356001600160401b03808211156132f257600080fd5b6132fe89838a01613228565b9450606088013591508082111561331457600080fd5b61332089838a01613228565b9350608088013591508082111561333657600080fd5b5061334388828901612d39565b9150509295509295909350565b600080600080600080600060c0888a03121561336b57600080fd5b8735965061337b60208901612cdc565b955060408801356001600160401b0381111561339657600080fd5b6133a28a828b01612e4d565b90965094506133b5905060608901612cdc565b92506080880135915060a0880135905092959891949750929550565b600080600080600060a086880312156133e957600080fd5b6133f286612cdc565b945061340060208701612cdc565b9350604086013592506060860135915060808601356001600160401b0381111561342957600080fd5b61334388828901612d39565b60208082526014908201527314d5ce881b9bdd081a5b88185b1b1bdddb1a5cdd60621b604082015260600190565b60208082526013908201527253573a206d69736d617463682061727261797360681b604082015260600190565b634e487b7160e01b600052603260045260246000fd5b60208082526012908201527129ab9d1034b73b30b634b21039b2b73232b960711b604082015260600190565b6000808335601e198436030181126134e957600080fd5b8301803591506001600160401b0382111561350357600080fd5b602001915036819003821315610dcf57600080fd5b600181811c9082168061352c57607f821691505b60208210810361354c57634e487b7160e01b600052602260045260246000fd5b50919050565b601f8211156119fd576000816000526020600020601f850160051c8101602086101561357b5750805b601f850160051c820191505b8181101561125a57828155600101613587565b6001600160401b038311156135b1576135b1612cf3565b6135c5836135bf8354613518565b83613552565b6000601f8411600181146135f957600085156135e15750838201355b600019600387901b1c1916600186901b1783556107a8565b600083815260209020601f19861690835b8281101561362a578685013582556020948501946001909201910161360a565b50868210156136475760001960f88860031b161c19848701351681555b505060018560011b0183555050505050565b634e487b7160e01b600052601160045260246000fd5b60006001820161368157613681613659565b5060010190565b60006020828403121561369a57600080fd5b5051919050565b818103818111156107e0576107e0613659565b6000602082840312156136c657600080fd5b81516118ee81612e0f565b60208152600082516101408060208501526136f0610160850183612fe2565b91506020850151601f198086850301604087015261370e8483612fe2565b93506040870151915061372c60608701836001600160a01b03169052565b606087015163ffffffff81166080880152915060808701516001600160a01b03811660a0880152915060a087015160ff811660c0880152915060c08701519150808685030160e08701526137808483612fe2565b935060e0870151915061010081878603018188015261379f8584612fe2565b9450808801519250506101208187860301818801526137be8584612fe2565b945080880151925050506137dc828601826001600160601b03169052565b5090949350505050565b81516001600160401b038111156137ff576137ff612cf3565b6138138161380d8454613518565b84613552565b602080601f83116001811461384857600084156138305750858301515b600019600386901b1c1916600185901b17855561125a565b600085815260208120601f198616915b8281101561387757888601518255948401946001909101908401613858565b50858210156138955787850151600019600388901b60f8161c191681555b5050505050600190811b01905550565b600082516138b7818460208701612fbe565b9190910192915050565b634e487b7160e01b600052602160045260246000fd5b600080858511156138e757600080fd5b838611156138f457600080fd5b5050820193919092039150565b6001600160e01b031981358181169160048510156139295780818660040360031b1b83161692505b505092915050565b60208152600082516080602084015261394d60a0840182612fe2565b905060018060a01b03602085015116604084015260408401516060840152606084015160808401528091505092915050565b634e487b7160e01b600052603160045260246000fdfea16a46d94261c7517cc8ff89f61c0ce93598e3c849801011dee649a6a557d100a2646970667358221220a930349dd7241e03d239c1665823e9d797929e8e98a7e86c2ff11e85f6cade7764736f6c63430008180033",
  "linkReferences": {},
  "deployedLinkReferences": {}
}