{
  "_format": "hh-sol-artifact-1",
  "contractName": "SmartWalletFactoryV1",
  "sourceName": "contracts/SmartWalletFactoryV1.sol",
  "abi": [
    {
      "inputs": [
        {
          "components": [
            {
              "internalType": "address",
              "name": "linkToken",
              "type": "address"
            },
            {
              "internalType": "address",
              "name": "clRegistrar",
              "type": "address"
            },
            {
              "internalType": "address",
              "name": "clRegistry",
              "type": "address"
            },
            {
              "internalType": "address",
              "name": "uniswapV3Router",
              "type": "address"
            },
            {
              "internalType": "address",
              "name": "wethToken",
              "type": "address"
            },
            {
              "internalType": "bytes",
              "name": "wethToLinkSwapPath",
              "type": "bytes"
            }
          ],
          "internalType": "struct SmartWalletFactoryV1.CommonDeployParams",
          "name": "_commonDeployParams",
          "type": "tuple"
        },
        {
          "internalType": "address",
          "name": "_implementation",
          "type": "address"
        }
      ],
      "stateMutability": "nonpayable",
      "type": "constructor"
    },
    {
      "inputs": [],
      "name": "ERC1167FailedCreateClone",
      "type": "error"
    },
    {
      "inputs": [],
      "name": "commonDeployParams",
      "outputs": [
        {
          "internalType": "address",
          "name": "linkToken",
          "type": "address"
        },
        {
          "internalType": "address",
          "name": "clRegistrar",
          "type": "address"
        },
        {
          "internalType": "address",
          "name": "clRegistry",
          "type": "address"
        },
        {
          "internalType": "address",
          "name": "uniswapV3Router",
          "type": "address"
        },
        {
          "internalType": "address",
          "name": "wethToken",
          "type": "address"
        },
        {
          "internalType": "bytes",
          "name": "wethToLinkSwapPath",
          "type": "bytes"
        }
      ],
      "stateMutability": "view",
      "type": "function"
    },
    {
      "inputs": [],
      "name": "counter",
      "outputs": [
        {
          "internalType": "uint256",
          "name": "",
          "type": "uint256"
        }
      ],
      "stateMutability": "view",
      "type": "function"
    },
    {
      "inputs": [
        {
          "internalType": "address",
          "name": "owner",
          "type": "address"
        },
        {
          "internalType": "address",
          "name": "allowlistOperator",
          "type": "address"
        },
        {
          "internalType": "bytes32",
          "name": "baseSalt",
          "type": "bytes32"
        }
      ],
      "name": "create2Wallet",
      "outputs": [
        {
          "internalType": "address",
          "name": "",
          "type": "address"
        }
      ],
      "stateMutability": "nonpayable",
      "type": "function"
    },
    {
      "inputs": [
        {
          "internalType": "address",
          "name": "owner",
          "type": "address"
        },
        {
          "internalType": "address",
          "name": "allowlistOperator",
          "type": "address"
        }
      ],
      "name": "createWallet",
      "outputs": [
        {
          "internalType": "address",
          "name": "",
          "type": "address"
        }
      ],
      "stateMutability": "nonpayable",
      "type": "function"
    },
    {
      "inputs": [
        {
          "internalType": "address",
          "name": "",
          "type": "address"
        }
      ],
      "name": "deployedSalts",
      "outputs": [
        {
          "internalType": "bytes32",
          "name": "",
          "type": "bytes32"
        }
      ],
      "stateMutability": "view",
      "type": "function"
    },
    {
      "inputs": [
        {
          "internalType": "address",
          "name": "sender",
          "type": "address"
        },
        {
          "internalType": "bytes32",
          "name": "baseSalt",
          "type": "bytes32"
        }
      ],
      "name": "getSalt",
      "outputs": [
        {
          "internalType": "bytes32",
          "name": "",
          "type": "bytes32"
        }
      ],
      "stateMutability": "pure",
      "type": "function"
    },
    {
      "inputs": [],
      "name": "implementation",
      "outputs": [
        {
          "internalType": "address",
          "name": "",
          "type": "address"
        }
      ],
      "stateMutability": "view",
      "type": "function"
    },
    {
      "inputs": [
        {
          "internalType": "address",
          "name": "sender",
          "type": "address"
        },
        {
          "internalType": "bytes32",
          "name": "baseSalt",
          "type": "bytes32"
        }
      ],
      "name": "predictCreate2Wallet",
      "outputs": [
        {
          "internalType": "address",
          "name": "",
          "type": "address"
        }
      ],
      "stateMutability": "view",
      "type": "function"
    },
    {
      "inputs": [
        {
          "internalType": "address",
          "name": "wallet",
          "type": "address"
        }
      ],
      "name": "validateWallet",
      "outputs": [
        {
          "internalType": "bool",
          "name": "",
          "type": "bool"
        }
      ],
      "stateMutability": "view",
      "type": "function"
    }
  ],
  "bytecode": "0x60a06040523480156200001157600080fd5b5060405162000cf038038062000cf0833981016040819052620000349162000161565b6001600160a01b0380821660809081528351600180549184166001600160a01b031992831617815560208601516002805491861691841691909117905560408601516003805491861691841691909117905560608601516004805491861691841691909117905591850151600580549190941691161790915560a0830151839190600690620000c490826200034c565b50905050505062000418565b634e487b7160e01b600052604160045260246000fd5b60405160c081016001600160401b03811182821017156200010b576200010b620000d0565b60405290565b604051601f8201601f191681016001600160401b03811182821017156200013c576200013c620000d0565b604052919050565b80516001600160a01b03811681146200015c57600080fd5b919050565b600080604083850312156200017557600080fd5b82516001600160401b03808211156200018d57600080fd5b9084019060c08287031215620001a257600080fd5b620001ac620000e6565b620001b78362000144565b81526020620001c881850162000144565b81830152620001da6040850162000144565b6040830152620001ed6060850162000144565b6060830152620002006080850162000144565b608083015260a0840151838111156200021857600080fd5b80850194505087601f8501126200022e57600080fd5b835183811115620002435762000243620000d0565b62000257601f8201601f1916830162000111565b935080845288828287010111156200026e57600080fd5b60005b818110156200028e57858101830151858201840152820162000271565b506000828286010152508260a0830152819550620002ae81880162000144565b9450505050509250929050565b600181811c90821680620002d057607f821691505b602082108103620002f157634e487b7160e01b600052602260045260246000fd5b50919050565b601f82111562000347576000816000526020600020601f850160051c81016020861015620003225750805b601f850160051c820191505b8181101562000343578281556001016200032e565b5050505b505050565b81516001600160401b03811115620003685762000368620000d0565b6200038081620003798454620002bb565b84620002f7565b602080601f831160018114620003b857600084156200039f5750858301515b600019600386901b1c1916600185901b17855562000343565b600085815260208120601f198616915b82811015620003e957888601518255948401946001909101908401620003c8565b5085821015620004085787850151600019600388901b60f8161c191681555b5050505050600190811b01905550565b6080516108a8620004486000396000818160ea0152818161026f0152818161041b015261050701526108a86000f3fe608060405234801561001057600080fd5b50600436106100935760003560e01c806361bc221a1161006657806361bc221a1461013757806363a183d1146101405780638f860c5f14610163578063b3e3bf4214610176578063dbed341e1461018957600080fd5b806321a5100f14610098578063371b52d6146100cb5780635c60da1b146100e55780635ec6154b14610124575b600080fd5b6100b86100a636600461061b565b60006020819052908152604090205481565b6040519081526020015b60405180910390f35b6100d361019c565b6040516100c29695949392919061067c565b61010c7f000000000000000000000000000000000000000000000000000000000000000081565b6040516001600160a01b0390911681526020016100c2565b61010c6101323660046106cc565b610259565b6100b860075481565b61015361014e36600461061b565b6103fa565b60405190151581526020016100c2565b61010c610171366004610708565b610458565b6100b861018436600461073b565b6104ac565b61010c61019736600461073b565b6104f3565b60018054600254600354600454600554600680546001600160a01b039687169795871696948516959385169490921692916101d690610765565b80601f016020809104026020016040519081016040528092919081815260200182805461020290610765565b801561024f5780601f106102245761010080835404028352916020019161024f565b820191906000526020600020905b81548152906001019060200180831161023257829003601f168201915b5050505050905086565b60008061026633846104ac565b905060006102947f000000000000000000000000000000000000000000000000000000000000000083610535565b60408051610100810182526001600160a01b03898116825288811660208301526001548116928201929092526002548216606082015260035482166080820152600454821660a0820152600554821660c0820152600680549394509184169263399d58ad9260e083019161030790610765565b80601f016020809104026020016040519081016040528092919081815260200182805461033390610765565b80156103805780601f1061035557610100808354040283529160200191610380565b820191906000526020600020905b81548152906001019060200180831161036357829003601f168201915b50505050508152506040518263ffffffff1660e01b81526004016103a4919061079f565b600060405180830381600087803b1580156103be57600080fd5b505af11580156103d2573d6000803e3d6000fd5b505050506001600160a01b038116600090815260208190526040902091909155949350505050565b6001600160a01b0381166000908152602081905260408120548190610441907f000000000000000000000000000000000000000000000000000000000000000090306105a3565b6001600160a01b0390811693169290921492915050565b60006104a38383600760008154809291906104729061084b565b9190505560405160200161048891815260200190565b60405160208183030381529060405280519060200120610259565b90505b92915050565b6040516bffffffffffffffffffffffff19606084901b1660208201526034810182905260009060540160405160208183030381529060405280519060200120905092915050565b60008061050084846104ac565b905061052d7f000000000000000000000000000000000000000000000000000000000000000082306105a3565b949350505050565b6000763d602d80600a3d3981f3363d3d373d3d3d363d730000008360601b60e81c176000526e5af43d82803e903d91602b57fd5bf38360781b1760205281603760096000f590506001600160a01b0381166104a6576040516330be1a3d60e21b815260040160405180910390fd5b60405160388101919091526f5af43d82803e903d91602b57fd5bf3ff60248201526014810192909252733d602d80600a3d3981f3363d3d373d3d3d363d73825260588201526037600c8201206078820152605560439091012090565b80356001600160a01b038116811461061657600080fd5b919050565b60006020828403121561062d57600080fd5b6104a3826105ff565b6000815180845260005b8181101561065c57602081850181015186830182015201610640565b506000602082860101526020601f19601f83011685010191505092915050565b6001600160a01b0387811682528681166020830152858116604083015284811660608301528316608082015260c060a082018190526000906106c090830184610636565b98975050505050505050565b6000806000606084860312156106e157600080fd5b6106ea846105ff565b92506106f8602085016105ff565b9150604084013590509250925092565b6000806040838503121561071b57600080fd5b610724836105ff565b9150610732602084016105ff565b90509250929050565b6000806040838503121561074e57600080fd5b610757836105ff565b946020939093013593505050565b600181811c9082168061077957607f821691505b60208210810361079957634e487b7160e01b600052602260045260246000fd5b50919050565b60208152600060018060a01b038084511660208401528060208501511660408401525060408301516107dc60608401826001600160a01b03169052565b5060608301516001600160a01b03811660808401525060808301516001600160a01b03811660a08401525060a08301516001600160a01b03811660c08401525060c08301516001600160a01b03811660e08401525060e08301516101008381015261052d610120840182610636565b60006001820161086b57634e487b7160e01b600052601160045260246000fd5b506001019056fea2646970667358221220450f75d390e42a510daab980e6cf89409d03e400bb093410530b2ff1c28fc1f864736f6c63430008180033",
  "linkReferences": {},
  "deployedLinkReferences": {}
}