{
  "_format": "hh-sol-artifact-1",
  "contractName": "SmartWalletFactoryV1",
  "sourceName": "contracts/SmartWalletFactoryV1.sol",
  "abi": [
    {
      "inputs": [
        {
          "components": [
            {
              "internalType": "address",
              "name": "linkToken",
              "type": "address"
            },
            {
              "internalType": "address",
              "name": "clRegistrar",
              "type": "address"
            },
            {
              "internalType": "address",
              "name": "clRegistry",
              "type": "address"
            },
            {
              "internalType": "address",
              "name": "uniswapV3Router",
              "type": "address"
            },
            {
              "internalType": "address",
              "name": "wethToken",
              "type": "address"
            },
            {
              "internalType": "uint256",
              "name": "linkFeePerExecution",
              "type": "uint256"
            },
            {
              "internalType": "bytes",
              "name": "wethToLinkSwapPath",
              "type": "bytes"
            }
          ],
          "internalType": "struct SmartWalletFactoryV1.CommonDeployParams",
          "name": "_commonDeployParams",
          "type": "tuple"
        },
        {
          "internalType": "address",
          "name": "_implementation",
          "type": "address"
        }
      ],
      "stateMutability": "nonpayable",
      "type": "constructor"
    },
    {
      "inputs": [],
      "name": "ERC1167FailedCreateClone",
      "type": "error"
    },
    {
      "inputs": [],
      "name": "commonDeployParams",
      "outputs": [
        {
          "internalType": "address",
          "name": "linkToken",
          "type": "address"
        },
        {
          "internalType": "address",
          "name": "clRegistrar",
          "type": "address"
        },
        {
          "internalType": "address",
          "name": "clRegistry",
          "type": "address"
        },
        {
          "internalType": "address",
          "name": "uniswapV3Router",
          "type": "address"
        },
        {
          "internalType": "address",
          "name": "wethToken",
          "type": "address"
        },
        {
          "internalType": "uint256",
          "name": "linkFeePerExecution",
          "type": "uint256"
        },
        {
          "internalType": "bytes",
          "name": "wethToLinkSwapPath",
          "type": "bytes"
        }
      ],
      "stateMutability": "view",
      "type": "function"
    },
    {
      "inputs": [],
      "name": "counter",
      "outputs": [
        {
          "internalType": "uint256",
          "name": "",
          "type": "uint256"
        }
      ],
      "stateMutability": "view",
      "type": "function"
    },
    {
      "inputs": [
        {
          "internalType": "address",
          "name": "owner",
          "type": "address"
        },
        {
          "internalType": "address",
          "name": "allowlistOperator",
          "type": "address"
        },
        {
          "internalType": "bytes32",
          "name": "baseSalt",
          "type": "bytes32"
        }
      ],
      "name": "create2Wallet",
      "outputs": [
        {
          "internalType": "address",
          "name": "",
          "type": "address"
        }
      ],
      "stateMutability": "nonpayable",
      "type": "function"
    },
    {
      "inputs": [
        {
          "internalType": "address",
          "name": "owner",
          "type": "address"
        },
        {
          "internalType": "address",
          "name": "allowlistOperator",
          "type": "address"
        }
      ],
      "name": "createWallet",
      "outputs": [
        {
          "internalType": "address",
          "name": "",
          "type": "address"
        }
      ],
      "stateMutability": "nonpayable",
      "type": "function"
    },
    {
      "inputs": [
        {
          "internalType": "address",
          "name": "",
          "type": "address"
        }
      ],
      "name": "deployedSalts",
      "outputs": [
        {
          "internalType": "bytes32",
          "name": "",
          "type": "bytes32"
        }
      ],
      "stateMutability": "view",
      "type": "function"
    },
    {
      "inputs": [
        {
          "internalType": "address",
          "name": "sender",
          "type": "address"
        },
        {
          "internalType": "bytes32",
          "name": "baseSalt",
          "type": "bytes32"
        }
      ],
      "name": "getSalt",
      "outputs": [
        {
          "internalType": "bytes32",
          "name": "",
          "type": "bytes32"
        }
      ],
      "stateMutability": "pure",
      "type": "function"
    },
    {
      "inputs": [],
      "name": "implementation",
      "outputs": [
        {
          "internalType": "address",
          "name": "",
          "type": "address"
        }
      ],
      "stateMutability": "view",
      "type": "function"
    },
    {
      "inputs": [
        {
          "internalType": "address",
          "name": "sender",
          "type": "address"
        },
        {
          "internalType": "bytes32",
          "name": "baseSalt",
          "type": "bytes32"
        }
      ],
      "name": "predictCreate2Wallet",
      "outputs": [
        {
          "internalType": "address",
          "name": "",
          "type": "address"
        }
      ],
      "stateMutability": "view",
      "type": "function"
    },
    {
      "inputs": [
        {
          "internalType": "address",
          "name": "wallet",
          "type": "address"
        }
      ],
      "name": "validateWallet",
      "outputs": [
        {
          "internalType": "bool",
          "name": "",
          "type": "bool"
        }
      ],
      "stateMutability": "view",
      "type": "function"
    }
  ],
  "bytecode": "0x60a06040523480156200001157600080fd5b5060405162000d4d38038062000d4d8339810160408190526200003491620001f6565b6001600160a01b0380821660809081528351600180549184166001600160a01b031992831617815560208601516002805491861691841691909117905560408601516003805491861691841691909117905560608601516004805491861691841691909117905591850151600580549190941691161790915560a083015160065560c0830151839190600790620000cc908262000378565b50905050505062000444565b634e487b7160e01b600052604160045260246000fd5b60405160e081016001600160401b0381118282101715620001135762000113620000d8565b60405290565b604051601f8201601f191681016001600160401b0381118282101715620001445762000144620000d8565b604052919050565b80516001600160a01b03811681146200016457600080fd5b919050565b600082601f8301126200017b57600080fd5b81516001600160401b03811115620001975762000197620000d8565b6020620001ad601f8301601f1916820162000119565b8281528582848701011115620001c257600080fd5b60005b83811015620001e2578581018301518282018401528201620001c5565b506000928101909101919091529392505050565b600080604083850312156200020a57600080fd5b82516001600160401b03808211156200022257600080fd5b9084019060e082870312156200023757600080fd5b62000241620000ee565b6200024c836200014c565b81526200025c602084016200014c565b60208201526200026f604084016200014c565b604082015262000282606084016200014c565b606082015262000295608084016200014c565b608082015260a083015160a082015260c083015182811115620002b757600080fd5b620002c58882860162000169565b60c0830152509350620002de915050602084016200014c565b90509250929050565b600181811c90821680620002fc57607f821691505b6020821081036200031d57634e487b7160e01b600052602260045260246000fd5b50919050565b601f82111562000373576000816000526020600020601f850160051c810160208610156200034e5750805b601f850160051c820191505b818110156200036f578281556001016200035a565b5050505b505050565b81516001600160401b03811115620003945762000394620000d8565b620003ac81620003a58454620002e7565b8462000323565b602080601f831160018114620003e45760008415620003cb5750858301515b600019600386901b1c1916600185901b1785556200036f565b600085815260208120601f198616915b828110156200041557888601518255948401946001909101908401620003f4565b5085821015620004345787850151600019600388901b60f8161c191681555b5050505050600190811b01905550565b6080516108d9620004746000396000818160eb0152818161027401528181610429015261051501526108d96000f3fe608060405234801561001057600080fd5b50600436106100935760003560e01c806361bc221a1161006657806361bc221a1461013857806363a183d1146101415780638f860c5f14610164578063b3e3bf4214610177578063dbed341e1461018a57600080fd5b806321a5100f14610098578063371b52d6146100cb5780635c60da1b146100e65780635ec6154b14610125575b600080fd5b6100b86100a6366004610629565b60006020819052908152604090205481565b6040519081526020015b60405180910390f35b6100d361019d565b6040516100c2979695949392919061068a565b61010d7f000000000000000000000000000000000000000000000000000000000000000081565b6040516001600160a01b0390911681526020016100c2565b61010d6101333660046106e2565b61025e565b6100b860085481565b61015461014f366004610629565b610408565b60405190151581526020016100c2565b61010d61017236600461071e565b610466565b6100b8610185366004610751565b6104ba565b61010d610198366004610751565b610501565b60018054600254600354600454600554600654600780546001600160a01b03978816989688169795861696948616959093169391926101db9061077b565b80601f01602080910402602001604051908101604052809291908181526020018280546102079061077b565b80156102545780601f1061022957610100808354040283529160200191610254565b820191906000526020600020905b81548152906001019060200180831161023757829003601f168201915b5050505050905087565b60008061026b33846104ba565b905060006102997f000000000000000000000000000000000000000000000000000000000000000083610543565b60408051610120810182526001600160a01b03898116825288811660208301526001548116928201929092526002548216606082015260035482166080820152600454821660a0820152600554821660c082015260065460e08201526007805493945091841692638f80f37a926101008301916103159061077b565b80601f01602080910402602001604051908101604052809291908181526020018280546103419061077b565b801561038e5780601f106103635761010080835404028352916020019161038e565b820191906000526020600020905b81548152906001019060200180831161037157829003601f168201915b50505050508152506040518263ffffffff1660e01b81526004016103b291906107b5565b600060405180830381600087803b1580156103cc57600080fd5b505af11580156103e0573d6000803e3d6000fd5b505050506001600160a01b038116600090815260208190526040902091909155949350505050565b6001600160a01b038116600090815260208190526040812054819061044f907f000000000000000000000000000000000000000000000000000000000000000090306105b1565b6001600160a01b0390811693169290921492915050565b60006104b18383600860008154809291906104809061087c565b9190505560405160200161049691815260200190565b6040516020818303038152906040528051906020012061025e565b90505b92915050565b6040516bffffffffffffffffffffffff19606084901b1660208201526034810182905260009060540160405160208183030381529060405280519060200120905092915050565b60008061050e84846104ba565b905061053b7f000000000000000000000000000000000000000000000000000000000000000082306105b1565b949350505050565b6000763d602d80600a3d3981f3363d3d373d3d3d363d730000008360601b60e81c176000526e5af43d82803e903d91602b57fd5bf38360781b1760205281603760096000f590506001600160a01b0381166104b4576040516330be1a3d60e21b815260040160405180910390fd5b60405160388101919091526f5af43d82803e903d91602b57fd5bf3ff60248201526014810192909252733d602d80600a3d3981f3363d3d373d3d3d363d73825260588201526037600c8201206078820152605560439091012090565b80356001600160a01b038116811461062457600080fd5b919050565b60006020828403121561063b57600080fd5b6104b18261060d565b6000815180845260005b8181101561066a5760208185018101518683018201520161064e565b506000602082860101526020601f19601f83011685010191505092915050565b6001600160a01b0388811682528781166020830152868116604083015285811660608301528416608082015260a0810183905260e060c082018190526000906106d590830184610644565b9998505050505050505050565b6000806000606084860312156106f757600080fd5b6107008461060d565b925061070e6020850161060d565b9150604084013590509250925092565b6000806040838503121561073157600080fd5b61073a8361060d565b91506107486020840161060d565b90509250929050565b6000806040838503121561076457600080fd5b61076d8361060d565b946020939093013593505050565b600181811c9082168061078f57607f821691505b6020821081036107af57634e487b7160e01b600052602260045260246000fd5b50919050565b602081526107cf6020820183516001600160a01b03169052565b600060208301516107eb60408401826001600160a01b03169052565b5060408301516001600160a01b03811660608401525060608301516001600160a01b03811660808401525060808301516001600160a01b03811660a08401525060a08301516001600160a01b03811660c08401525060c08301516001600160a01b03811660e08401525060e0830151610100838101919091528301516101208084015261053b610140840182610644565b60006001820161089c57634e487b7160e01b600052601160045260246000fd5b506001019056fea26469706673582212206f2ab3475c4200167042598355af1aa18b5526dde98890c8222331e16b9c72a664736f6c63430008180033",
  "linkReferences": {},
  "deployedLinkReferences": {}
}