{
  "_format": "hh-sol-artifact-1",
  "contractName": "SmartWalletV1",
  "sourceName": "contracts/SmartWalletV1.sol",
  "abi": [
    {
      "inputs": [],
      "stateMutability": "nonpayable",
      "type": "constructor"
    },
    {
      "inputs": [
        {
          "internalType": "address",
          "name": "target",
          "type": "address"
        }
      ],
      "name": "AddressEmptyCode",
      "type": "error"
    },
    {
      "inputs": [
        {
          "internalType": "address",
          "name": "account",
          "type": "address"
        }
      ],
      "name": "AddressInsufficientBalance",
      "type": "error"
    },
    {
      "inputs": [],
      "name": "ECDSAInvalidSignature",
      "type": "error"
    },
    {
      "inputs": [
        {
          "internalType": "uint256",
          "name": "length",
          "type": "uint256"
        }
      ],
      "name": "ECDSAInvalidSignatureLength",
      "type": "error"
    },
    {
      "inputs": [
        {
          "internalType": "bytes32",
          "name": "s",
          "type": "bytes32"
        }
      ],
      "name": "ECDSAInvalidSignatureS",
      "type": "error"
    },
    {
      "inputs": [
        {
          "internalType": "uint256",
          "name": "key",
          "type": "uint256"
        }
      ],
      "name": "EnumerableMapNonexistentKey",
      "type": "error"
    },
    {
      "inputs": [],
      "name": "FailedInnerCall",
      "type": "error"
    },
    {
      "inputs": [
        {
          "internalType": "address",
          "name": "account",
          "type": "address"
        },
        {
          "internalType": "uint256",
          "name": "currentNonce",
          "type": "uint256"
        }
      ],
      "name": "InvalidAccountNonce",
      "type": "error"
    },
    {
      "inputs": [],
      "name": "InvalidInitialization",
      "type": "error"
    },
    {
      "inputs": [],
      "name": "NotInitializing",
      "type": "error"
    },
    {
      "inputs": [
        {
          "internalType": "address",
          "name": "owner",
          "type": "address"
        }
      ],
      "name": "OwnableInvalidOwner",
      "type": "error"
    },
    {
      "inputs": [
        {
          "internalType": "address",
          "name": "account",
          "type": "address"
        }
      ],
      "name": "OwnableUnauthorizedAccount",
      "type": "error"
    },
    {
      "anonymous": false,
      "inputs": [],
      "name": "EIP712DomainChanged",
      "type": "event"
    },
    {
      "anonymous": false,
      "inputs": [
        {
          "indexed": false,
          "internalType": "uint64",
          "name": "version",
          "type": "uint64"
        }
      ],
      "name": "Initialized",
      "type": "event"
    },
    {
      "anonymous": false,
      "inputs": [
        {
          "indexed": true,
          "internalType": "address",
          "name": "previousOwner",
          "type": "address"
        },
        {
          "indexed": true,
          "internalType": "address",
          "name": "newOwner",
          "type": "address"
        }
      ],
      "name": "OwnershipTransferred",
      "type": "event"
    },
    {
      "inputs": [
        {
          "internalType": "address",
          "name": "addr",
          "type": "address"
        }
      ],
      "name": "addToAllowlist",
      "outputs": [],
      "stateMutability": "nonpayable",
      "type": "function"
    },
    {
      "inputs": [
        {
          "internalType": "address",
          "name": "addr",
          "type": "address"
        },
        {
          "internalType": "uint256",
          "name": "deadline",
          "type": "uint256"
        },
        {
          "internalType": "uint8",
          "name": "v",
          "type": "uint8"
        },
        {
          "internalType": "bytes32",
          "name": "r",
          "type": "bytes32"
        },
        {
          "internalType": "bytes32",
          "name": "s",
          "type": "bytes32"
        }
      ],
      "name": "addToAllowlistWithPermit",
      "outputs": [],
      "stateMutability": "nonpayable",
      "type": "function"
    },
    {
      "inputs": [
        {
          "internalType": "bytes32",
          "name": "externalId",
          "type": "bytes32"
        },
        {
          "internalType": "address",
          "name": "callback",
          "type": "address"
        },
        {
          "internalType": "bytes",
          "name": "executeData",
          "type": "bytes"
        },
        {
          "internalType": "address",
          "name": "executeTo",
          "type": "address"
        },
        {
          "internalType": "uint256",
          "name": "executeValue",
          "type": "uint256"
        },
        {
          "internalType": "uint256",
          "name": "executeAfter",
          "type": "uint256"
        }
      ],
      "name": "addToAutoExecute",
      "outputs": [
        {
          "internalType": "bytes32",
          "name": "id",
          "type": "bytes32"
        }
      ],
      "stateMutability": "nonpayable",
      "type": "function"
    },
    {
      "inputs": [],
      "name": "allowListOperator",
      "outputs": [
        {
          "internalType": "address",
          "name": "",
          "type": "address"
        }
      ],
      "stateMutability": "view",
      "type": "function"
    },
    {
      "inputs": [
        {
          "internalType": "address",
          "name": "",
          "type": "address"
        }
      ],
      "name": "allowlist",
      "outputs": [
        {
          "internalType": "bool",
          "name": "",
          "type": "bool"
        }
      ],
      "stateMutability": "view",
      "type": "function"
    },
    {
      "inputs": [],
      "name": "autoExecuteCounter",
      "outputs": [
        {
          "internalType": "uint256",
          "name": "",
          "type": "uint256"
        }
      ],
      "stateMutability": "view",
      "type": "function"
    },
    {
      "inputs": [
        {
          "internalType": "address",
          "name": "to",
          "type": "address"
        },
        {
          "internalType": "bytes4",
          "name": "funcSelector",
          "type": "bytes4"
        }
      ],
      "name": "blacklist",
      "outputs": [],
      "stateMutability": "nonpayable",
      "type": "function"
    },
    {
      "inputs": [
        {
          "internalType": "address[]",
          "name": "tos",
          "type": "address[]"
        },
        {
          "internalType": "bytes4[]",
          "name": "funcSelectors",
          "type": "bytes4[]"
        }
      ],
      "name": "blacklistBatch",
      "outputs": [],
      "stateMutability": "nonpayable",
      "type": "function"
    },
    {
      "inputs": [
        {
          "internalType": "address",
          "name": "",
          "type": "address"
        },
        {
          "internalType": "bytes4",
          "name": "",
          "type": "bytes4"
        }
      ],
      "name": "blacklistedFunctions",
      "outputs": [
        {
          "internalType": "bool",
          "name": "",
          "type": "bool"
        }
      ],
      "stateMutability": "view",
      "type": "function"
    },
    {
      "inputs": [
        {
          "internalType": "bytes",
          "name": "",
          "type": "bytes"
        }
      ],
      "name": "checkUpkeep",
      "outputs": [
        {
          "internalType": "bool",
          "name": "upkeepNeeded",
          "type": "bool"
        },
        {
          "internalType": "bytes",
          "name": "performData",
          "type": "bytes"
        }
      ],
      "stateMutability": "view",
      "type": "function"
    },
    {
      "inputs": [],
      "name": "eip712Domain",
      "outputs": [
        {
          "internalType": "bytes1",
          "name": "fields",
          "type": "bytes1"
        },
        {
          "internalType": "string",
          "name": "name",
          "type": "string"
        },
        {
          "internalType": "string",
          "name": "version",
          "type": "string"
        },
        {
          "internalType": "uint256",
          "name": "chainId",
          "type": "uint256"
        },
        {
          "internalType": "address",
          "name": "verifyingContract",
          "type": "address"
        },
        {
          "internalType": "bytes32",
          "name": "salt",
          "type": "bytes32"
        },
        {
          "internalType": "uint256[]",
          "name": "extensions",
          "type": "uint256[]"
        }
      ],
      "stateMutability": "view",
      "type": "function"
    },
    {
      "inputs": [
        {
          "internalType": "address",
          "name": "to",
          "type": "address"
        },
        {
          "internalType": "uint256",
          "name": "callValue",
          "type": "uint256"
        },
        {
          "internalType": "bytes",
          "name": "data",
          "type": "bytes"
        }
      ],
      "name": "execute",
      "outputs": [
        {
          "internalType": "bytes",
          "name": "returnData",
          "type": "bytes"
        }
      ],
      "stateMutability": "nonpayable",
      "type": "function"
    },
    {
      "inputs": [
        {
          "internalType": "address[]",
          "name": "tos",
          "type": "address[]"
        },
        {
          "internalType": "uint256[]",
          "name": "callValues",
          "type": "uint256[]"
        },
        {
          "internalType": "bytes[]",
          "name": "datas",
          "type": "bytes[]"
        }
      ],
      "name": "executeBatch",
      "outputs": [
        {
          "internalType": "bytes[]",
          "name": "returnDatas",
          "type": "bytes[]"
        }
      ],
      "stateMutability": "nonpayable",
      "type": "function"
    },
    {
      "inputs": [
        {
          "internalType": "bytes32",
          "name": "",
          "type": "bytes32"
        }
      ],
      "name": "extenralIdsToExecutesIds",
      "outputs": [
        {
          "internalType": "uint256",
          "name": "",
          "type": "uint256"
        }
      ],
      "stateMutability": "view",
      "type": "function"
    },
    {
      "inputs": [
        {
          "components": [
            {
              "internalType": "address",
              "name": "owner",
              "type": "address"
            },
            {
              "internalType": "address",
              "name": "allowlistOperator",
              "type": "address"
            },
            {
              "internalType": "address",
              "name": "linkToken",
              "type": "address"
            },
            {
              "internalType": "address",
              "name": "clRegistrar",
              "type": "address"
            },
            {
              "internalType": "address",
              "name": "clRegistry",
              "type": "address"
            },
            {
              "internalType": "address",
              "name": "uniswapV3Router",
              "type": "address"
            },
            {
              "internalType": "address",
              "name": "wethToken",
              "type": "address"
            },
            {
              "internalType": "bytes",
              "name": "wethToLinkSwapPath",
              "type": "bytes"
            }
          ],
          "internalType": "struct ISmartWalletFactory.CreateWalletParams",
          "name": "createParams",
          "type": "tuple"
        }
      ],
      "name": "initialize",
      "outputs": [],
      "stateMutability": "nonpayable",
      "type": "function"
    },
    {
      "inputs": [
        {
          "internalType": "address",
          "name": "owner",
          "type": "address"
        }
      ],
      "name": "nonces",
      "outputs": [
        {
          "internalType": "uint256",
          "name": "",
          "type": "uint256"
        }
      ],
      "stateMutability": "view",
      "type": "function"
    },
    {
      "inputs": [],
      "name": "owner",
      "outputs": [
        {
          "internalType": "address",
          "name": "",
          "type": "address"
        }
      ],
      "stateMutability": "view",
      "type": "function"
    },
    {
      "inputs": [
        {
          "internalType": "bytes",
          "name": "performData",
          "type": "bytes"
        }
      ],
      "name": "performUpkeep",
      "outputs": [],
      "stateMutability": "nonpayable",
      "type": "function"
    },
    {
      "inputs": [
        {
          "internalType": "bytes32",
          "name": "id",
          "type": "bytes32"
        }
      ],
      "name": "removeAutoExecute",
      "outputs": [],
      "stateMutability": "nonpayable",
      "type": "function"
    },
    {
      "inputs": [
        {
          "internalType": "address",
          "name": "addr",
          "type": "address"
        }
      ],
      "name": "removeFromAllowlist",
      "outputs": [],
      "stateMutability": "nonpayable",
      "type": "function"
    },
    {
      "inputs": [
        {
          "internalType": "address",
          "name": "to",
          "type": "address"
        },
        {
          "internalType": "bytes4",
          "name": "funcSelector",
          "type": "bytes4"
        }
      ],
      "name": "removeFromBlacklist",
      "outputs": [],
      "stateMutability": "nonpayable",
      "type": "function"
    },
    {
      "inputs": [
        {
          "internalType": "address[]",
          "name": "tos",
          "type": "address[]"
        },
        {
          "internalType": "bytes4[]",
          "name": "funcSelectors",
          "type": "bytes4[]"
        }
      ],
      "name": "removeFromBlacklistBatch",
      "outputs": [],
      "stateMutability": "nonpayable",
      "type": "function"
    },
    {
      "inputs": [],
      "name": "renounceOwnership",
      "outputs": [],
      "stateMutability": "nonpayable",
      "type": "function"
    },
    {
      "inputs": [
        {
          "internalType": "address",
          "name": "newOwner",
          "type": "address"
        }
      ],
      "name": "transferOwnership",
      "outputs": [],
      "stateMutability": "nonpayable",
      "type": "function"
    },
    {
      "inputs": [],
      "name": "upkeepId",
      "outputs": [
        {
          "internalType": "uint256",
          "name": "",
          "type": "uint256"
        }
      ],
      "stateMutability": "view",
      "type": "function"
    },
    {
      "stateMutability": "payable",
      "type": "receive"
    }
  ],
  "bytecode": "0x60806040523480156200001157600080fd5b506200001c62000022565b620000d6565b7ff0c57e16840df040f15088dc2f81fe391c3923bec73e23a9662efc9c229c6a00805468010000000000000000900460ff1615620000735760405163f92ee8a960e01b815260040160405180910390fd5b80546001600160401b0390811614620000d35780546001600160401b0319166001600160401b0390811782556040519081527fc7f505b2f371ae2175ee4913f4499e1f2633a7b5936321eed1cdaeb6115181d29060200160405180910390a15b50565b61336a80620000e66000396000f3fe60806040526004361061016a5760003560e01c80637ecebe00116100d1578063ca7fecd61161008a578063ee70fc0b11610064578063ee70fc0b146104ca578063f22dc14e146104ea578063f2fde38b1461050a578063f8e86ece1461052a57600080fd5b8063ca7fecd61461047e578063d2aa789f14610494578063d48337cb146104aa57600080fd5b80637ecebe001461034457806384b0196e146103995780638da5cb5b146103c1578063a7cd52cb146103d6578063b61d27f614610416578063bc2780281461044357600080fd5b80635da93d7e116101235780635da93d7e1461024e5780636e04ff0d1461026e5780636e9f509a1461029c5780636f6bc0cb146102d7578063715018a61461030f57806373c32eca1461032457600080fd5b806301bd118f14610176578063399d58ad146101985780634585e33b146101b85780634757f2f5146101d857806347e1da2a146101f857806352663a161461022e57600080fd5b3661017157005b600080fd5b34801561018257600080fd5b506101966101913660046128aa565b61054a565b005b3480156101a457600080fd5b506101966101b3366004612915565b61065a565b3480156101c457600080fd5b506101966101d3366004612991565b6108f8565b3480156101e457600080fd5b506101966101f33660046129ee565b61097e565b34801561020457600080fd5b50610218610213366004612a44565b610b14565b6040516102259190612b2d565b60405180910390f35b34801561023a57600080fd5b50610196610249366004612ba9565b610c3d565b34801561025a57600080fd5b50610196610269366004612bdc565b610cf7565b34801561027a57600080fd5b5061028e610289366004612991565b610d68565b604051610225929190612bf7565b3480156102a857600080fd5b506102c96102b7366004612c12565b60026020526000908152604090205481565b604051908152602001610225565b3480156102e357600080fd5b506003546102f7906001600160a01b031681565b6040516001600160a01b039091168152602001610225565b34801561031b57600080fd5b50610196610e0d565b34801561033057600080fd5b5061019661033f366004612c12565b610e21565b34801561035057600080fd5b506102c961035f366004612bdc565b6001600160a01b031660009081527f5ab42ced628888259c08ac98db1eb0cf702fc1501344311d8b100cd1bfe4bb00602052604090205490565b3480156103a557600080fd5b506103ae610edf565b6040516102259796959493929190612c2b565b3480156103cd57600080fd5b506102f7610f8b565b3480156103e257600080fd5b506104066103f1366004612bdc565b60006020819052908152604090205460ff1681565b6040519015158152602001610225565b34801561042257600080fd5b50610436610431366004612cc4565b610fb9565b6040516102259190612d11565b34801561044f57600080fd5b5061040661045e366004612ba9565b600160209081526000928352604080842090915290825290205460ff1681565b34801561048a57600080fd5b506102c960045481565b3480156104a057600080fd5b506102c960055481565b3480156104b657600080fd5b506101966104c5366004612ba9565b611028565b3480156104d657600080fd5b506102c96104e5366004612d24565b61108f565b3480156104f657600080fd5b506101966105053660046128aa565b6112c5565b34801561051657600080fd5b50610196610525366004612bdc565b61143b565b34801561053657600080fd5b50610196610545366004612bdc565b611479565b3360009081526020819052604090205460ff166105825760405162461bcd60e51b815260040161057990612da5565b60405180910390fd5b8281146105a15760405162461bcd60e51b815260040161057990612dd3565b60005b83811015610653576000600160008787858181106105c4576105c4612e00565b90506020020160208101906105d99190612bdc565b6001600160a01b03166001600160a01b03168152602001908152602001600020600085858581811061060d5761060d612e00565b90506020020160208101906106229190612e16565b6001600160e01b03191681526020810191909152604001600020805460ff19169115159190911790556001016105a4565b5050505050565b7ff0c57e16840df040f15088dc2f81fe391c3923bec73e23a9662efc9c229c6a008054600160401b810460ff1615906001600160401b031660008115801561069f5750825b90506000826001600160401b031660011480156106bb5750303b155b9050811580156106c9575080155b156106e75760405163f92ee8a960e01b815260040160405180910390fd5b845467ffffffffffffffff19166001178555831561071157845460ff60401b1916600160401b1785555b6107266107216020880188612bdc565b6114ed565b61076e6040518060400160405280600d81526020016c536d61727457616c6c6574563160981b815250604051806040016040528060018152602001603160f81b8152506114fe565b61077e6040870160208801612bdc565b600380546001600160a01b0319166001600160a01b03929092169190911790556107ae60c0870160a08801612bdc565b600c80546001600160a01b0319166001600160a01b03929092169190911790556107de60e0870160c08801612bdc565b600d80546001600160a01b0319166001600160a01b039290921691909117905561080b60e0870187612e31565b600e91610819919083612f0f565b5061082a6060870160408801612bdc565b600680546001600160a01b0319166001600160a01b039290921691909117905561085a6080870160608801612bdc565b600780546001600160a01b0319166001600160a01b039290921691909117905561088a60a0870160808801612bdc565b600880546001600160a01b0319166001600160a01b039290921691909117905583156108f057845460ff60401b19168555604051600181527fc7f505b2f371ae2175ee4913f4499e1f2633a7b5936321eed1cdaeb6115181d29060200160405180910390a15b505050505050565b600061090682840184612c12565b90506000610915600983611514565b90508060c00151421161096a5760405162461bcd60e51b815260206004820152601760248201527f53573a20746f206561726c7920746f20657865637574650000000000000000006044820152606401610579565b6109738161169c565b610653600983611799565b428410156109c65760405162461bcd60e51b815260206004820152601560248201527453573a2065787069726564207369676e617475726560581b6044820152606401610579565b6003546001600160a01b031660009081527f5ab42ced628888259c08ac98db1eb0cf702fc1501344311d8b100cd1bfe4bb00602052604081208054600181019091557f06ea063c304aa8c971f8a1bf2ea47d4306e6ccc987a0cb6b88f69a909d934f4690879087604051602001610a5f94939291909384526001600160a01b039290921660208401526040830152606082015260800190565b6040516020818303038152906040528051906020012090506000610a8282611807565b90506000610a9282878787611834565b6003549091506001600160a01b03808316911614610ae75760405162461bcd60e51b815260206004820152601260248201527129ab9d1034b73b30b634b21039b4b3b732b960711b6044820152606401610579565b5050506001600160a01b039094166000908152602081905260409020805460ff1916600117905550505050565b6060610b1e611864565b8584148015610b2c57508582145b610b485760405162461bcd60e51b815260040161057990612dd3565b856001600160401b03811115610b6057610b60612e77565b604051908082528060200260200182016040528015610b9357816020015b6060815260200190600190039081610b7e5790505b50905060005b86811015610c3257610c0d888883818110610bb657610bb6612e00565b9050602002016020810190610bcb9190612bdc565b878784818110610bdd57610bdd612e00565b90506020020135868685818110610bf657610bf6612e00565b9050602002810190610c089190612e31565b611896565b828281518110610c1f57610c1f612e00565b6020908102919091010152600101610b99565b509695505050505050565b3360009081526020819052604090205460ff16610c6c5760405162461bcd60e51b815260040161057990612da5565b6001600160e01b03198116610cba5760405162461bcd60e51b815260206004820152601460248201527329ab9d1034b73b30b634b21039b2b632b1ba37b960611b6044820152606401610579565b6001600160a01b0390911660009081526001602081815260408084206001600160e01b03199095168452939052919020805460ff19169091179055565b6003546001600160a01b03163314610d475760405162461bcd60e51b815260206004820152601360248201527229ab9d103737ba1030b71037b832b930ba37b960691b6044820152606401610579565b6001600160a01b03166000908152602081905260409020805460ff19169055565b600060606000610d7860096119a7565b905060005b8151811015610e03576000828281518110610d9a57610d9a612e00565b602002602001015190506000610dba82600961151490919063ffffffff16565b90508060c00151421115610df957600182604051602001610ddd91815260200190565b6040516020818303038152906040529550955050505050610e06565b5050600101610d7d565b50505b9250929050565b610e15611864565b610e1f60006119b2565b565b60008181526002602052604090205480610e6d5760405162461bcd60e51b815260206004820152600d60248201526c14d5ce881b9bdd08195e1a5cdd609a1b6044820152606401610579565b6000610e7a600983611514565b60208101519091506001600160a01b03163314610ece5760405162461bcd60e51b815260206004820152601260248201527129ab9d1034b73b30b634b21039b2b73232b960711b6044820152606401610579565b610ed9600983611799565b50505050565b600060608082808083816000805160206133158339815191528054909150158015610f0c57506001810154155b610f505760405162461bcd60e51b81526020600482015260156024820152741152540dcc4c8e88155b9a5b9a5d1a585b1a5e9959605a1b6044820152606401610579565b610f58611a23565b610f60611ae6565b60408051600080825260208201909252600f60f81b9c939b5091995046985030975095509350915050565b7f9016d09d72d40fdae2fd8ceac6b6234c7706214fd39c1cd1e609a0528c199300546001600160a01b031690565b6060610fc3611864565b306001600160a01b038616036110135760405162461bcd60e51b815260206004820152601560248201527453573a20746f2063616e6e6f74206265207468697360581b6044820152606401610579565b61101f85858585611896565b95945050505050565b3360009081526020819052604090205460ff166110575760405162461bcd60e51b815260040161057990612da5565b6001600160a01b0390911660009081526001602090815260408083206001600160e01b0319909416835292905220805460ff19169055565b6000611099610f8b565b6001600160a01b0316336001600160a01b031614806110c757503360009081526020819052604090205460ff165b6111085760405162461bcd60e51b815260206004820152601260248201527129ab9d1034b73b30b634b21039b2b73232b960711b6044820152606401610579565b6040516bffffffffffffffffffffffff193360601b166020820152603481018990526054016040516020818303038152906040528051906020012090504282116111945760405162461bcd60e51b815260206004820152601860248201527f53573a20696e76616c696420657865637574652074696d6500000000000000006044820152606401610579565b600081815260026020526040902054156111e75760405162461bcd60e51b815260206004820152601460248201527314d5ce881a5908185b1c9958591e48195e1a5cdd60621b6044820152606401610579565b6111f867016345785d8a0000611b25565b60006040518060e00160405280838152602001336001600160a01b03168152602001896001600160a01b0316815260200188888080601f01602080910402602001604051908101604052809392919081815260200183838082843760009201829052509385525050506001600160a01b0388166020830152604082018790526060909101859052600480549293509091829061129390612fe4565b9182905550600084815260026020526040902081905590506112b760098284611eb0565b505050979650505050505050565b3360009081526020819052604090205460ff166112f45760405162461bcd60e51b815260040161057990612da5565b8281146113135760405162461bcd60e51b815260040161057990612dd3565b60005b8381101561065357600083838381811061133257611332612e00565b90506020020160208101906113479190612e16565b6001600160e01b031916036113955760405162461bcd60e51b815260206004820152601460248201527329ab9d1034b73b30b634b21039b2b632b1ba37b960611b6044820152606401610579565b60018060008787858181106113ac576113ac612e00565b90506020020160208101906113c19190612bdc565b6001600160a01b03166001600160a01b0316815260200190815260200160002060008585858181106113f5576113f5612e00565b905060200201602081019061140a9190612e16565b6001600160e01b03191681526020810191909152604001600020805460ff1916911515919091179055600101611316565b611443611864565b6001600160a01b03811661146d57604051631e4fbdf760e01b815260006004820152602401610579565b611476816119b2565b50565b6003546001600160a01b031633146114c95760405162461bcd60e51b815260206004820152601360248201527229ab9d103737ba1030b71037b832b930ba37b960691b6044820152606401610579565b6001600160a01b03166000908152602081905260409020805460ff19166001179055565b6114f5611f6a565b61147681611fb3565b611506611f6a565b6115108282611fbb565b5050565b6040805160e0810182526000808252602082018190529181018290526060808201526080810182905260a0810182905260c08101919091526000828152600280850160209081526040808420815160e0810183528154815260018201546001600160a01b039081169482019490945293810154909216908301526003810180546060840191906115a390612e8d565b80601f01602080910402602001604051908101604052809291908181526020018280546115cf90612e8d565b801561161c5780601f106115f15761010080835404028352916020019161161c565b820191906000526020600020905b8154815290600101906020018083116115ff57829003601f168201915b505050918352505060048201546001600160a01b039081166020808401919091526005840154604084015260069093015460609092019190915290820151919250161580156116725750611670848461201c565b155b1561169357604051630e8152f560e21b815260048101849052602401610579565b90505b92915050565b60608101515115611707578060a001516000036116dd576116d7816060015182608001516001600160a01b031661202890919063ffffffff16565b50611719565b6116d781606001518260a0015183608001516001600160a01b03166120329092919063ffffffff16565b61171981608001518260a001516120cf565b60408101516001600160a01b0316156114765761151081604001516001600160a01b0316631ada3ad9836000015160405160240161175991815260200190565b60408051601f198184030181529181526020820180516001600160e01b031660e09490941b93909317909252908401516001600160a01b03169150612028565b60008181526002808401602052604082208281556001810180546001600160a01b03199081169091559181018054909216909155816117db6003830182612818565b506004810180546001600160a01b0319169055600060058201819055600690910155611693838361216b565b6000611696611814612177565b8360405161190160f01b8152600281019290925260228201526042902090565b60008060008061184688888888612186565b9250925092506118568282612255565b50909150505b949350505050565b3361186d610f8b565b6001600160a01b031614610e1f5760405163118cdaa760e01b8152336004820152602401610579565b6060306001600160a01b038616036118e85760405162461bcd60e51b815260206004820152601560248201527453573a20746f2063616e6e6f74206265207468697360581b6044820152606401610579565b6118f385848461230e565b811561199d57836000036119525761194b83838080601f016020809104026020016040519081016040528093929190818152602001838380828437600092019190915250506001600160a01b03891692915050612028565b905061185c565b61194b83838080601f01602080910402602001604051908101604052809392919081815260200183838082843760009201919091525050506001600160a01b03881691905086612032565b61185c85856120cf565b6060611696826123ae565b7f9016d09d72d40fdae2fd8ceac6b6234c7706214fd39c1cd1e609a0528c19930080546001600160a01b031981166001600160a01b03848116918217845560405192169182907f8be0079c531659141344cd1fd0a4f28419497f9722a3daafe3b4186f6b6457e090600090a3505050565b7fa16a46d94261c7517cc8ff89f61c0ce93598e3c849801011dee649a6a557d102805460609160008051602061331583398151915291611a6290612e8d565b80601f0160208091040260200160405190810160405280929190818152602001828054611a8e90612e8d565b8015611adb5780601f10611ab057610100808354040283529160200191611adb565b820191906000526020600020905b815481529060010190602001808311611abe57829003601f168201915b505050505091505090565b7fa16a46d94261c7517cc8ff89f61c0ce93598e3c849801011dee649a6a557d103805460609160008051602061331583398151915291611a6290612e8d565b6006546040516370a0823160e01b81523060048201526000916001600160a01b0316906370a0823190602401602060405180830381865afa158015611b6e573d6000803e3d6000fd5b505050506040513d601f19601f82011682018060405250810190611b929190612ffd565b905081811015611c4357600c54600e8054611c41926001600160a01b03169190611bbb90612e8d565b80601f0160208091040260200160405190810160405280929190818152602001828054611be790612e8d565b8015611c345780601f10611c0957610100808354040283529160200191611c34565b820191906000526020600020905b815481529060010190602001808311611c1757829003601f168201915b50505050503085476123bb565b505b600554600003611dc45760065460075460405163095ea7b360e01b81526001600160a01b0391821660048201526024810185905291169063095ea7b3906044016020604051808303816000875af1158015611ca2573d6000803e3d6000fd5b505050506040513d601f19601f82011682018060405250810190611cc69190613016565b5060408051610160810182526000610140820181815282528251602081810185528282528084019190915230838501819052624c4b406060850152608084015260a083018290528351808201855282815260c08401528351808201855282815260e08401528351908101845290815261010082015267016345785d8a00006101208201526007549151633f678e1160e01b815290916001600160a01b031690633f678e1190611d79908490600401613038565b6020604051808303816000875af1158015611d98573d6000803e3d6000fd5b505050506040513d601f19601f82011682018060405250810190611dbc9190612ffd565b600555505050565b60065460085460405163095ea7b360e01b81526001600160a01b0391821660048201526024810185905291169063095ea7b3906044016020604051808303816000875af1158015611e19573d6000803e3d6000fd5b505050506040513d601f19601f82011682018060405250810190611e3d9190613016565b5060085460055460405163948108f760e01b815260048101919091526bffffffffffffffffffffffff841660248201526001600160a01b039091169063948108f790604401600060405180830381600087803b158015611e9c57600080fd5b505af11580156108f0573d6000803e3d6000fd5b600082815260028481016020908152604080842085518155918501516001830180546001600160a01b03199081166001600160a01b039384161790915591860151938301805490921693169290921790915560608301518391906003820190611f199082613152565b5060808201516004820180546001600160a01b0319166001600160a01b0390921691909117905560a0820151600582015560c090910151600690910155611f6084846124af565b90505b9392505050565b7ff0c57e16840df040f15088dc2f81fe391c3923bec73e23a9662efc9c229c6a0054600160401b900460ff16610e1f57604051631afcd79f60e31b815260040160405180910390fd5b611443611f6a565b611fc3611f6a565b6000805160206133158339815191527fa16a46d94261c7517cc8ff89f61c0ce93598e3c849801011dee649a6a557d102611ffd8482613152565b506003810161200c8382613152565b5060008082556001909101555050565b600061169383836124bb565b6060611693838360005b6060814710156120575760405163cd78605960e01b8152306004820152602401610579565b600080856001600160a01b031684866040516120739190613211565b60006040518083038185875af1925050503d80600081146120b0576040519150601f19603f3d011682016040523d82523d6000602084013e6120b5565b606091505b50915091506120c58683836124d3565b9695505050505050565b804710156120f25760405163cd78605960e01b8152306004820152602401610579565b6000826001600160a01b03168260405160006040518083038185875af1925050503d806000811461213f576040519150601f19603f3d011682016040523d82523d6000602084013e612144565b606091505b505090508061216657604051630a12f52160e11b815260040160405180910390fd5b505050565b6000611693838361252f565b6000612181612622565b905090565b600080807f7fffffffffffffffffffffffffffffff5d576e7357a4501ddfe92f46681b20a08411156121c1575060009150600390508261224b565b604080516000808252602082018084528a905260ff891692820192909252606081018790526080810186905260019060a0016020604051602081039080840390855afa158015612215573d6000803e3d6000fd5b5050604051601f1901519150506001600160a01b0381166122415750600092506001915082905061224b565b9250600091508190505b9450945094915050565b60008260038111156122695761226961322d565b03612272575050565b60018260038111156122865761228661322d565b036122a45760405163f645eedf60e01b815260040160405180910390fd5b60028260038111156122b8576122b861322d565b036122d95760405163fce698f760e01b815260048101829052602401610579565b60038260038111156122ed576122ed61322d565b03611510576040516335e2f38360e21b815260048101829052602401610579565b600081900361231c57505050565b600061232b6004828486613243565b6123349161326d565b6001600160a01b03851660009081526001602090815260408083206001600160e01b03198516845290915290205490915060ff1615610ed95760405162461bcd60e51b815260206004820152601660248201527510d5ce88199d5b98c81a5cc8189b1858db1a5cdd195960521b6044820152606401610579565b60606000611f6383612696565b604080516080810182528581526001600160a01b0380861660208301528183018590526060820184905291516304dc09a360e11b81526000928816906309b8134690859061240d90859060040161329d565b60206040518083038185885af115801561242b573d6000803e3d6000fd5b50505050506040513d601f19601f820116820180604052508101906124509190612ffd565b9150866001600160a01b03166312210e8a6040518163ffffffff1660e01b8152600401600060405180830381600087803b15801561248d57600080fd5b505af11580156124a1573d6000803e3d6000fd5b505050505095945050505050565b600061169383836126f2565b60008181526001830160205260408120541515611693565b6060826124e8576124e382612741565b611f63565b81511580156124ff57506001600160a01b0384163b155b1561252857604051639996b31560e01b81526001600160a01b0385166004820152602401610579565b5080611f63565b600081815260018301602052604081205480156126185760006125536001836132eb565b8554909150600090612567906001906132eb565b90508082146125cc57600086600001828154811061258757612587612e00565b90600052602060002001549050808760000184815481106125aa576125aa612e00565b6000918252602080832090910192909255918252600188019052604090208390555b85548690806125dd576125dd6132fe565b600190038181906000526020600020016000905590558560010160008681526020019081526020016000206000905560019350505050611696565b6000915050611696565b60007f8b73c3c69bb8fe3d512ecc4cf759cc79239f7b179b0ffacaa9a75d522b39400f61264d61276a565b6126556127d4565b60408051602081019490945283019190915260608201524660808201523060a082015260c00160405160208183030381529060405280519060200120905090565b6060816000018054806020026020016040519081016040528092919081815260200182805480156126e657602002820191906000526020600020905b8154815260200190600101908083116126d2575b50505050509050919050565b600081815260018301602052604081205461273957508154600181810184556000848152602080822090930184905584548482528286019093526040902091909155611696565b506000611696565b8051156127515780518082602001fd5b604051630a12f52160e11b815260040160405180910390fd5b600060008051602061331583398151915281612784611a23565b80519091501561279c57805160209091012092915050565b815480156127ab579392505050565b7fc5d2460186f7233c927e7db2dcc703c0e500b653ca82273b7bfad8045d85a470935050505090565b6000600080516020613315833981519152816127ee611ae6565b80519091501561280657805160209091012092915050565b600182015480156127ab579392505050565b50805461282490612e8d565b6000825580601f10612834575050565b601f01602090049060005260206000209081019061147691905b80821115612862576000815560010161284e565b5090565b60008083601f84011261287857600080fd5b5081356001600160401b0381111561288f57600080fd5b6020830191508360208260051b8501011115610e0657600080fd5b600080600080604085870312156128c057600080fd5b84356001600160401b03808211156128d757600080fd5b6128e388838901612866565b909650945060208701359150808211156128fc57600080fd5b5061290987828801612866565b95989497509550505050565b60006020828403121561292757600080fd5b81356001600160401b0381111561293d57600080fd5b8201610100818503121561169357600080fd5b60008083601f84011261296257600080fd5b5081356001600160401b0381111561297957600080fd5b602083019150836020828501011115610e0657600080fd5b600080602083850312156129a457600080fd5b82356001600160401b038111156129ba57600080fd5b6129c685828601612950565b90969095509350505050565b80356001600160a01b03811681146129e957600080fd5b919050565b600080600080600060a08688031215612a0657600080fd5b612a0f866129d2565b945060208601359350604086013560ff81168114612a2c57600080fd5b94979396509394606081013594506080013592915050565b60008060008060008060608789031215612a5d57600080fd5b86356001600160401b0380821115612a7457600080fd5b612a808a838b01612866565b90985096506020890135915080821115612a9957600080fd5b612aa58a838b01612866565b90965094506040890135915080821115612abe57600080fd5b50612acb89828a01612866565b979a9699509497509295939492505050565b60005b83811015612af8578181015183820152602001612ae0565b50506000910152565b60008151808452612b19816020860160208601612add565b601f01601f19169290920160200192915050565b600060208083016020845280855180835260408601915060408160051b87010192506020870160005b82811015612b8457603f19888603018452612b72858351612b01565b94509285019290850190600101612b56565b5092979650505050505050565b80356001600160e01b0319811681146129e957600080fd5b60008060408385031215612bbc57600080fd5b612bc5836129d2565b9150612bd360208401612b91565b90509250929050565b600060208284031215612bee57600080fd5b611693826129d2565b8215158152604060208201526000611f606040830184612b01565b600060208284031215612c2457600080fd5b5035919050565b60ff60f81b881681526000602060e06020840152612c4c60e084018a612b01565b8381036040850152612c5e818a612b01565b606085018990526001600160a01b038816608086015260a0850187905284810360c08601528551808252602080880193509091019060005b81811015612cb257835183529284019291840191600101612c96565b50909c9b505050505050505050505050565b60008060008060608587031215612cda57600080fd5b612ce3856129d2565b93506020850135925060408501356001600160401b03811115612d0557600080fd5b61290987828801612950565b6020815260006116936020830184612b01565b600080600080600080600060c0888a031215612d3f57600080fd5b87359650612d4f602089016129d2565b955060408801356001600160401b03811115612d6a57600080fd5b612d768a828b01612950565b9096509450612d899050606089016129d2565b92506080880135915060a0880135905092959891949750929550565b60208082526014908201527314d5ce881b9bdd081a5b88185b1b1bdddb1a5cdd60621b604082015260600190565b60208082526013908201527253573a206d69736d617463682061727261797360681b604082015260600190565b634e487b7160e01b600052603260045260246000fd5b600060208284031215612e2857600080fd5b61169382612b91565b6000808335601e19843603018112612e4857600080fd5b8301803591506001600160401b03821115612e6257600080fd5b602001915036819003821315610e0657600080fd5b634e487b7160e01b600052604160045260246000fd5b600181811c90821680612ea157607f821691505b602082108103612ec157634e487b7160e01b600052602260045260246000fd5b50919050565b601f821115612166576000816000526020600020601f850160051c81016020861015612ef05750805b601f850160051c820191505b818110156108f057828155600101612efc565b6001600160401b03831115612f2657612f26612e77565b612f3a83612f348354612e8d565b83612ec7565b6000601f841160018114612f6e5760008515612f565750838201355b600019600387901b1c1916600186901b178355610653565b600083815260209020601f19861690835b82811015612f9f5786850135825560209485019460019092019101612f7f565b5086821015612fbc5760001960f88860031b161c19848701351681555b505060018560011b0183555050505050565b634e487b7160e01b600052601160045260246000fd5b600060018201612ff657612ff6612fce565b5060010190565b60006020828403121561300f57600080fd5b5051919050565b60006020828403121561302857600080fd5b8151801515811461169357600080fd5b6020815260008251610140806020850152613057610160850183612b01565b91506020850151601f19808685030160408701526130758483612b01565b93506040870151915061309360608701836001600160a01b03169052565b606087015163ffffffff81166080880152915060808701516001600160a01b03811660a0880152915060a087015160ff811660c0880152915060c08701519150808685030160e08701526130e78483612b01565b935060e087015191506101008187860301818801526131068584612b01565b9450808801519250506101208187860301818801526131258584612b01565b94508088015192505050613148828601826bffffffffffffffffffffffff169052565b5090949350505050565b81516001600160401b0381111561316b5761316b612e77565b61317f816131798454612e8d565b84612ec7565b602080601f8311600181146131b4576000841561319c5750858301515b600019600386901b1c1916600185901b1785556108f0565b600085815260208120601f198616915b828110156131e3578886015182559484019460019091019084016131c4565b50858210156132015787850151600019600388901b60f8161c191681555b5050505050600190811b01905550565b60008251613223818460208701612add565b9190910192915050565b634e487b7160e01b600052602160045260246000fd5b6000808585111561325357600080fd5b8386111561326057600080fd5b5050820193919092039150565b6001600160e01b031981358181169160048510156132955780818660040360031b1b83161692505b505092915050565b6020815260008251608060208401526132b960a0840182612b01565b905060018060a01b03602085015116604084015260408401516060840152606084015160808401528091505092915050565b8181038181111561169657611696612fce565b634e487b7160e01b600052603160045260246000fdfea16a46d94261c7517cc8ff89f61c0ce93598e3c849801011dee649a6a557d100a264697066735822122059239378965882721c28b94e944f5e9b4bcff3b353bafcebfd15517344733d3964736f6c63430008180033",
  "linkReferences": {},
  "deployedLinkReferences": {}
}