{
  "_format": "hh-sol-artifact-1",
  "contractName": "SmartWalletV1",
  "sourceName": "contracts/SmartWalletV1.sol",
  "abi": [
    {
      "inputs": [],
      "stateMutability": "nonpayable",
      "type": "constructor"
    },
    {
      "inputs": [
        {
          "internalType": "address",
          "name": "target",
          "type": "address"
        }
      ],
      "name": "AddressEmptyCode",
      "type": "error"
    },
    {
      "inputs": [
        {
          "internalType": "address",
          "name": "account",
          "type": "address"
        }
      ],
      "name": "AddressInsufficientBalance",
      "type": "error"
    },
    {
      "inputs": [],
      "name": "ECDSAInvalidSignature",
      "type": "error"
    },
    {
      "inputs": [
        {
          "internalType": "uint256",
          "name": "length",
          "type": "uint256"
        }
      ],
      "name": "ECDSAInvalidSignatureLength",
      "type": "error"
    },
    {
      "inputs": [
        {
          "internalType": "bytes32",
          "name": "s",
          "type": "bytes32"
        }
      ],
      "name": "ECDSAInvalidSignatureS",
      "type": "error"
    },
    {
      "inputs": [
        {
          "internalType": "uint256",
          "name": "key",
          "type": "uint256"
        }
      ],
      "name": "EnumerableMapNonexistentKey",
      "type": "error"
    },
    {
      "inputs": [],
      "name": "FailedInnerCall",
      "type": "error"
    },
    {
      "inputs": [
        {
          "internalType": "address",
          "name": "account",
          "type": "address"
        },
        {
          "internalType": "uint256",
          "name": "currentNonce",
          "type": "uint256"
        }
      ],
      "name": "InvalidAccountNonce",
      "type": "error"
    },
    {
      "inputs": [],
      "name": "InvalidInitialization",
      "type": "error"
    },
    {
      "inputs": [],
      "name": "NotInitializing",
      "type": "error"
    },
    {
      "inputs": [
        {
          "internalType": "address",
          "name": "owner",
          "type": "address"
        }
      ],
      "name": "OwnableInvalidOwner",
      "type": "error"
    },
    {
      "inputs": [
        {
          "internalType": "address",
          "name": "account",
          "type": "address"
        }
      ],
      "name": "OwnableUnauthorizedAccount",
      "type": "error"
    },
    {
      "anonymous": false,
      "inputs": [],
      "name": "EIP712DomainChanged",
      "type": "event"
    },
    {
      "anonymous": false,
      "inputs": [
        {
          "indexed": false,
          "internalType": "uint64",
          "name": "version",
          "type": "uint64"
        }
      ],
      "name": "Initialized",
      "type": "event"
    },
    {
      "anonymous": false,
      "inputs": [
        {
          "indexed": true,
          "internalType": "address",
          "name": "previousOwner",
          "type": "address"
        },
        {
          "indexed": true,
          "internalType": "address",
          "name": "newOwner",
          "type": "address"
        }
      ],
      "name": "OwnershipTransferred",
      "type": "event"
    },
    {
      "inputs": [
        {
          "internalType": "address",
          "name": "addr",
          "type": "address"
        }
      ],
      "name": "addToAllowlist",
      "outputs": [],
      "stateMutability": "nonpayable",
      "type": "function"
    },
    {
      "inputs": [
        {
          "internalType": "address",
          "name": "addr",
          "type": "address"
        },
        {
          "internalType": "uint256",
          "name": "deadline",
          "type": "uint256"
        },
        {
          "internalType": "uint8",
          "name": "v",
          "type": "uint8"
        },
        {
          "internalType": "bytes32",
          "name": "r",
          "type": "bytes32"
        },
        {
          "internalType": "bytes32",
          "name": "s",
          "type": "bytes32"
        }
      ],
      "name": "addToAllowlistWithPermit",
      "outputs": [],
      "stateMutability": "nonpayable",
      "type": "function"
    },
    {
      "inputs": [
        {
          "internalType": "bytes32",
          "name": "externalId",
          "type": "bytes32"
        },
        {
          "internalType": "address",
          "name": "callback",
          "type": "address"
        },
        {
          "internalType": "bytes",
          "name": "executeData",
          "type": "bytes"
        },
        {
          "internalType": "address",
          "name": "executeTo",
          "type": "address"
        },
        {
          "internalType": "uint256",
          "name": "executeValue",
          "type": "uint256"
        },
        {
          "internalType": "uint256",
          "name": "executeAfter",
          "type": "uint256"
        }
      ],
      "name": "addToAutoExecute",
      "outputs": [
        {
          "internalType": "bytes32",
          "name": "id",
          "type": "bytes32"
        }
      ],
      "stateMutability": "nonpayable",
      "type": "function"
    },
    {
      "inputs": [],
      "name": "allowListOperator",
      "outputs": [
        {
          "internalType": "address",
          "name": "",
          "type": "address"
        }
      ],
      "stateMutability": "view",
      "type": "function"
    },
    {
      "inputs": [
        {
          "internalType": "address",
          "name": "",
          "type": "address"
        }
      ],
      "name": "allowlist",
      "outputs": [
        {
          "internalType": "bool",
          "name": "",
          "type": "bool"
        }
      ],
      "stateMutability": "view",
      "type": "function"
    },
    {
      "inputs": [],
      "name": "autoExecuteCounter",
      "outputs": [
        {
          "internalType": "uint256",
          "name": "",
          "type": "uint256"
        }
      ],
      "stateMutability": "view",
      "type": "function"
    },
    {
      "inputs": [
        {
          "internalType": "address",
          "name": "to",
          "type": "address"
        },
        {
          "internalType": "bytes4",
          "name": "funcSelector",
          "type": "bytes4"
        }
      ],
      "name": "blacklist",
      "outputs": [],
      "stateMutability": "nonpayable",
      "type": "function"
    },
    {
      "inputs": [
        {
          "internalType": "address[]",
          "name": "tos",
          "type": "address[]"
        },
        {
          "internalType": "bytes4[]",
          "name": "funcSelectors",
          "type": "bytes4[]"
        }
      ],
      "name": "blacklistBatch",
      "outputs": [],
      "stateMutability": "nonpayable",
      "type": "function"
    },
    {
      "inputs": [
        {
          "internalType": "address",
          "name": "",
          "type": "address"
        },
        {
          "internalType": "bytes4",
          "name": "",
          "type": "bytes4"
        }
      ],
      "name": "blacklistedFunctions",
      "outputs": [
        {
          "internalType": "bool",
          "name": "",
          "type": "bool"
        }
      ],
      "stateMutability": "view",
      "type": "function"
    },
    {
      "inputs": [
        {
          "internalType": "bytes",
          "name": "",
          "type": "bytes"
        }
      ],
      "name": "checkUpkeep",
      "outputs": [
        {
          "internalType": "bool",
          "name": "upkeepNeeded",
          "type": "bool"
        },
        {
          "internalType": "bytes",
          "name": "performData",
          "type": "bytes"
        }
      ],
      "stateMutability": "view",
      "type": "function"
    },
    {
      "inputs": [],
      "name": "eip712Domain",
      "outputs": [
        {
          "internalType": "bytes1",
          "name": "fields",
          "type": "bytes1"
        },
        {
          "internalType": "string",
          "name": "name",
          "type": "string"
        },
        {
          "internalType": "string",
          "name": "version",
          "type": "string"
        },
        {
          "internalType": "uint256",
          "name": "chainId",
          "type": "uint256"
        },
        {
          "internalType": "address",
          "name": "verifyingContract",
          "type": "address"
        },
        {
          "internalType": "bytes32",
          "name": "salt",
          "type": "bytes32"
        },
        {
          "internalType": "uint256[]",
          "name": "extensions",
          "type": "uint256[]"
        }
      ],
      "stateMutability": "view",
      "type": "function"
    },
    {
      "inputs": [
        {
          "internalType": "address",
          "name": "to",
          "type": "address"
        },
        {
          "internalType": "uint256",
          "name": "callValue",
          "type": "uint256"
        },
        {
          "internalType": "bytes",
          "name": "data",
          "type": "bytes"
        }
      ],
      "name": "execute",
      "outputs": [
        {
          "internalType": "bytes",
          "name": "returnData",
          "type": "bytes"
        }
      ],
      "stateMutability": "nonpayable",
      "type": "function"
    },
    {
      "inputs": [
        {
          "internalType": "address[]",
          "name": "tos",
          "type": "address[]"
        },
        {
          "internalType": "uint256[]",
          "name": "callValues",
          "type": "uint256[]"
        },
        {
          "internalType": "bytes[]",
          "name": "datas",
          "type": "bytes[]"
        }
      ],
      "name": "executeBatch",
      "outputs": [
        {
          "internalType": "bytes[]",
          "name": "returnDatas",
          "type": "bytes[]"
        }
      ],
      "stateMutability": "nonpayable",
      "type": "function"
    },
    {
      "inputs": [
        {
          "internalType": "bytes32",
          "name": "",
          "type": "bytes32"
        }
      ],
      "name": "extenralIdsToExecutesIds",
      "outputs": [
        {
          "internalType": "uint256",
          "name": "",
          "type": "uint256"
        }
      ],
      "stateMutability": "view",
      "type": "function"
    },
    {
      "inputs": [
        {
          "components": [
            {
              "internalType": "address",
              "name": "owner",
              "type": "address"
            },
            {
              "internalType": "address",
              "name": "allowlistOperator",
              "type": "address"
            },
            {
              "internalType": "address",
              "name": "linkToken",
              "type": "address"
            },
            {
              "internalType": "address",
              "name": "clRegistrar",
              "type": "address"
            },
            {
              "internalType": "address",
              "name": "clRegistry",
              "type": "address"
            },
            {
              "internalType": "address",
              "name": "uniswapV3Router",
              "type": "address"
            },
            {
              "internalType": "address",
              "name": "wethToken",
              "type": "address"
            },
            {
              "internalType": "bytes",
              "name": "wethToLinkSwapPath",
              "type": "bytes"
            }
          ],
          "internalType": "struct ISmartWalletFactory.CreateWalletParams",
          "name": "createParams",
          "type": "tuple"
        }
      ],
      "name": "initialize",
      "outputs": [],
      "stateMutability": "nonpayable",
      "type": "function"
    },
    {
      "inputs": [
        {
          "internalType": "address",
          "name": "owner",
          "type": "address"
        }
      ],
      "name": "nonces",
      "outputs": [
        {
          "internalType": "uint256",
          "name": "",
          "type": "uint256"
        }
      ],
      "stateMutability": "view",
      "type": "function"
    },
    {
      "inputs": [],
      "name": "owner",
      "outputs": [
        {
          "internalType": "address",
          "name": "",
          "type": "address"
        }
      ],
      "stateMutability": "view",
      "type": "function"
    },
    {
      "inputs": [
        {
          "internalType": "bytes",
          "name": "performData",
          "type": "bytes"
        }
      ],
      "name": "performUpkeep",
      "outputs": [],
      "stateMutability": "nonpayable",
      "type": "function"
    },
    {
      "inputs": [
        {
          "internalType": "bytes32",
          "name": "id",
          "type": "bytes32"
        }
      ],
      "name": "removeAutoExecute",
      "outputs": [],
      "stateMutability": "nonpayable",
      "type": "function"
    },
    {
      "inputs": [
        {
          "internalType": "address",
          "name": "addr",
          "type": "address"
        }
      ],
      "name": "removeFromAllowlist",
      "outputs": [],
      "stateMutability": "nonpayable",
      "type": "function"
    },
    {
      "inputs": [
        {
          "internalType": "address",
          "name": "to",
          "type": "address"
        },
        {
          "internalType": "bytes4",
          "name": "funcSelector",
          "type": "bytes4"
        }
      ],
      "name": "removeFromBlacklist",
      "outputs": [],
      "stateMutability": "nonpayable",
      "type": "function"
    },
    {
      "inputs": [
        {
          "internalType": "address[]",
          "name": "tos",
          "type": "address[]"
        },
        {
          "internalType": "bytes4[]",
          "name": "funcSelectors",
          "type": "bytes4[]"
        }
      ],
      "name": "removeFromBlacklistBatch",
      "outputs": [],
      "stateMutability": "nonpayable",
      "type": "function"
    },
    {
      "inputs": [],
      "name": "renounceOwnership",
      "outputs": [],
      "stateMutability": "nonpayable",
      "type": "function"
    },
    {
      "inputs": [
        {
          "internalType": "address",
          "name": "newOwner",
          "type": "address"
        }
      ],
      "name": "transferOwnership",
      "outputs": [],
      "stateMutability": "nonpayable",
      "type": "function"
    },
    {
      "inputs": [],
      "name": "upkeepId",
      "outputs": [
        {
          "internalType": "uint256",
          "name": "",
          "type": "uint256"
        }
      ],
      "stateMutability": "view",
      "type": "function"
    },
    {
      "stateMutability": "payable",
      "type": "receive"
    }
  ],
  "bytecode": "0x60806040523480156200001157600080fd5b506200001c62000022565b620000d6565b7ff0c57e16840df040f15088dc2f81fe391c3923bec73e23a9662efc9c229c6a00805468010000000000000000900460ff1615620000735760405163f92ee8a960e01b815260040160405180910390fd5b80546001600160401b0390811614620000d35780546001600160401b0319166001600160401b0390811782556040519081527fc7f505b2f371ae2175ee4913f4499e1f2633a7b5936321eed1cdaeb6115181d29060200160405180910390a15b50565b6132d480620000e66000396000f3fe60806040526004361061016a5760003560e01c80637ecebe00116100d1578063ca7fecd61161008a578063ee70fc0b11610064578063ee70fc0b146104ca578063f22dc14e146104ea578063f2fde38b1461050a578063f8e86ece1461052a57600080fd5b8063ca7fecd61461047e578063d2aa789f14610494578063d48337cb146104aa57600080fd5b80637ecebe001461034457806384b0196e146103995780638da5cb5b146103c1578063a7cd52cb146103d6578063b61d27f614610416578063bc2780281461044357600080fd5b80635da93d7e116101235780635da93d7e1461024e5780636e04ff0d1461026e5780636e9f509a1461029c5780636f6bc0cb146102d7578063715018a61461030f57806373c32eca1461032457600080fd5b806301bd118f14610176578063399d58ad146101985780634585e33b146101b85780634757f2f5146101d857806347e1da2a146101f857806352663a161461022e57600080fd5b3661017157005b600080fd5b34801561018257600080fd5b5061019661019136600461280a565b61054a565b005b3480156101a457600080fd5b506101966101b3366004612875565b61065a565b3480156101c457600080fd5b506101966101d33660046128f1565b6108f8565b3480156101e457600080fd5b506101966101f336600461294e565b61097e565b34801561020457600080fd5b506102186102133660046129a4565b610b14565b6040516102259190612a8d565b60405180910390f35b34801561023a57600080fd5b50610196610249366004612b09565b610c3d565b34801561025a57600080fd5b50610196610269366004612b3c565b610cf7565b34801561027a57600080fd5b5061028e6102893660046128f1565b610d68565b604051610225929190612b57565b3480156102a857600080fd5b506102c96102b7366004612b72565b60026020526000908152604090205481565b604051908152602001610225565b3480156102e357600080fd5b506003546102f7906001600160a01b031681565b6040516001600160a01b039091168152602001610225565b34801561031b57600080fd5b50610196610e0d565b34801561033057600080fd5b5061019661033f366004612b72565b610e21565b34801561035057600080fd5b506102c961035f366004612b3c565b6001600160a01b031660009081527f5ab42ced628888259c08ac98db1eb0cf702fc1501344311d8b100cd1bfe4bb00602052604090205490565b3480156103a557600080fd5b506103ae610edf565b6040516102259796959493929190612b8b565b3480156103cd57600080fd5b506102f7610f8b565b3480156103e257600080fd5b506104066103f1366004612b3c565b60006020819052908152604090205460ff1681565b6040519015158152602001610225565b34801561042257600080fd5b50610436610431366004612c24565b610fb9565b6040516102259190612c71565b34801561044f57600080fd5b5061040661045e366004612b09565b600160209081526000928352604080842090915290825290205460ff1681565b34801561048a57600080fd5b506102c960045481565b3480156104a057600080fd5b506102c960055481565b3480156104b657600080fd5b506101966104c5366004612b09565b611028565b3480156104d657600080fd5b506102c96104e5366004612c84565b61108f565b3480156104f657600080fd5b5061019661050536600461280a565b6112c5565b34801561051657600080fd5b50610196610525366004612b3c565b61143b565b34801561053657600080fd5b50610196610545366004612b3c565b611479565b3360009081526020819052604090205460ff166105825760405162461bcd60e51b815260040161057990612d05565b60405180910390fd5b8281146105a15760405162461bcd60e51b815260040161057990612d33565b60005b83811015610653576000600160008787858181106105c4576105c4612d60565b90506020020160208101906105d99190612b3c565b6001600160a01b03166001600160a01b03168152602001908152602001600020600085858581811061060d5761060d612d60565b90506020020160208101906106229190612d76565b6001600160e01b03191681526020810191909152604001600020805460ff19169115159190911790556001016105a4565b5050505050565b7ff0c57e16840df040f15088dc2f81fe391c3923bec73e23a9662efc9c229c6a008054600160401b810460ff1615906001600160401b031660008115801561069f5750825b90506000826001600160401b031660011480156106bb5750303b155b9050811580156106c9575080155b156106e75760405163f92ee8a960e01b815260040160405180910390fd5b845467ffffffffffffffff19166001178555831561071157845460ff60401b1916600160401b1785555b6107266107216020880188612b3c565b6114ed565b61076e6040518060400160405280600d81526020016c536d61727457616c6c6574563160981b815250604051806040016040528060018152602001603160f81b8152506114fe565b61077e6040870160208801612b3c565b600380546001600160a01b0319166001600160a01b03929092169190911790556107ae60c0870160a08801612b3c565b600c80546001600160a01b0319166001600160a01b03929092169190911790556107de60e0870160c08801612b3c565b600d80546001600160a01b0319166001600160a01b039290921691909117905561080b60e0870187612d91565b600e91610819919083612e6f565b5061082a6060870160408801612b3c565b600680546001600160a01b0319166001600160a01b039290921691909117905561085a6080870160608801612b3c565b600780546001600160a01b0319166001600160a01b039290921691909117905561088a60a0870160808801612b3c565b600880546001600160a01b0319166001600160a01b039290921691909117905583156108f057845460ff60401b19168555604051600181527fc7f505b2f371ae2175ee4913f4499e1f2633a7b5936321eed1cdaeb6115181d29060200160405180910390a15b505050505050565b600061090682840184612b72565b90506000610915600983611514565b90508060c00151421161096a5760405162461bcd60e51b815260206004820152601760248201527f53573a20746f206561726c7920746f20657865637574650000000000000000006044820152606401610579565b6109738161169c565b610653600983611769565b428410156109c65760405162461bcd60e51b815260206004820152601560248201527453573a2065787069726564207369676e617475726560581b6044820152606401610579565b6003546001600160a01b031660009081527f5ab42ced628888259c08ac98db1eb0cf702fc1501344311d8b100cd1bfe4bb00602052604081208054600181019091557f06ea063c304aa8c971f8a1bf2ea47d4306e6ccc987a0cb6b88f69a909d934f4690879087604051602001610a5f94939291909384526001600160a01b039290921660208401526040830152606082015260800190565b6040516020818303038152906040528051906020012090506000610a82826117d7565b90506000610a9282878787611804565b6003549091506001600160a01b03808316911614610ae75760405162461bcd60e51b815260206004820152601260248201527129ab9d1034b73b30b634b21039b4b3b732b960711b6044820152606401610579565b5050506001600160a01b039094166000908152602081905260409020805460ff1916600117905550505050565b6060610b1e611834565b8584148015610b2c57508582145b610b485760405162461bcd60e51b815260040161057990612d33565b856001600160401b03811115610b6057610b60612dd7565b604051908082528060200260200182016040528015610b9357816020015b6060815260200190600190039081610b7e5790505b50905060005b86811015610c3257610c0d888883818110610bb657610bb6612d60565b9050602002016020810190610bcb9190612b3c565b878784818110610bdd57610bdd612d60565b90506020020135868685818110610bf657610bf6612d60565b9050602002810190610c089190612d91565b611866565b828281518110610c1f57610c1f612d60565b6020908102919091010152600101610b99565b509695505050505050565b3360009081526020819052604090205460ff16610c6c5760405162461bcd60e51b815260040161057990612d05565b6001600160e01b03198116610cba5760405162461bcd60e51b815260206004820152601460248201527329ab9d1034b73b30b634b21039b2b632b1ba37b960611b6044820152606401610579565b6001600160a01b0390911660009081526001602081815260408084206001600160e01b03199095168452939052919020805460ff19169091179055565b6003546001600160a01b03163314610d475760405162461bcd60e51b815260206004820152601360248201527229ab9d103737ba1030b71037b832b930ba37b960691b6044820152606401610579565b6001600160a01b03166000908152602081905260409020805460ff19169055565b600060606000610d786009611977565b905060005b8151811015610e03576000828281518110610d9a57610d9a612d60565b602002602001015190506000610dba82600961151490919063ffffffff16565b90508060c00151421115610df957600182604051602001610ddd91815260200190565b6040516020818303038152906040529550955050505050610e06565b5050600101610d7d565b50505b9250929050565b610e15611834565b610e1f6000611982565b565b60008181526002602052604090205480610e6d5760405162461bcd60e51b815260206004820152600d60248201526c14d5ce881b9bdd08195e1a5cdd609a1b6044820152606401610579565b6000610e7a600983611514565b60208101519091506001600160a01b03163314610ece5760405162461bcd60e51b815260206004820152601260248201527129ab9d1034b73b30b634b21039b2b73232b960711b6044820152606401610579565b610ed9600983611769565b50505050565b6000606080828080838160008051602061327f8339815191528054909150158015610f0c57506001810154155b610f505760405162461bcd60e51b81526020600482015260156024820152741152540dcc4c8e88155b9a5b9a5d1a585b1a5e9959605a1b6044820152606401610579565b610f586119f3565b610f60611ab6565b60408051600080825260208201909252600f60f81b9c939b5091995046985030975095509350915050565b7f9016d09d72d40fdae2fd8ceac6b6234c7706214fd39c1cd1e609a0528c199300546001600160a01b031690565b6060610fc3611834565b306001600160a01b038616036110135760405162461bcd60e51b815260206004820152601560248201527453573a20746f2063616e6e6f74206265207468697360581b6044820152606401610579565b61101f85858585611866565b95945050505050565b3360009081526020819052604090205460ff166110575760405162461bcd60e51b815260040161057990612d05565b6001600160a01b0390911660009081526001602090815260408083206001600160e01b0319909416835292905220805460ff19169055565b6000611099610f8b565b6001600160a01b0316336001600160a01b031614806110c757503360009081526020819052604090205460ff165b6111085760405162461bcd60e51b815260206004820152601260248201527129ab9d1034b73b30b634b21039b2b73232b960711b6044820152606401610579565b6040516bffffffffffffffffffffffff193360601b166020820152603481018990526054016040516020818303038152906040528051906020012090504282116111945760405162461bcd60e51b815260206004820152601860248201527f53573a20696e76616c696420657865637574652074696d6500000000000000006044820152606401610579565b600081815260026020526040902054156111e75760405162461bcd60e51b815260206004820152601460248201527314d5ce881a5908185b1c9958591e48195e1a5cdd60621b6044820152606401610579565b6111f867016345785d8a0000611af5565b60006040518060e00160405280838152602001336001600160a01b03168152602001896001600160a01b0316815260200188888080601f01602080910402602001604051908101604052809392919081815260200183838082843760009201829052509385525050506001600160a01b0388166020830152604082018790526060909101859052600480549293509091829061129390612f44565b9182905550600084815260026020526040902081905590506112b760098284611e06565b505050979650505050505050565b3360009081526020819052604090205460ff166112f45760405162461bcd60e51b815260040161057990612d05565b8281146113135760405162461bcd60e51b815260040161057990612d33565b60005b8381101561065357600083838381811061133257611332612d60565b90506020020160208101906113479190612d76565b6001600160e01b031916036113955760405162461bcd60e51b815260206004820152601460248201527329ab9d1034b73b30b634b21039b2b632b1ba37b960611b6044820152606401610579565b60018060008787858181106113ac576113ac612d60565b90506020020160208101906113c19190612b3c565b6001600160a01b03166001600160a01b0316815260200190815260200160002060008585858181106113f5576113f5612d60565b905060200201602081019061140a9190612d76565b6001600160e01b03191681526020810191909152604001600020805460ff1916911515919091179055600101611316565b611443611834565b6001600160a01b03811661146d57604051631e4fbdf760e01b815260006004820152602401610579565b61147681611982565b50565b6003546001600160a01b031633146114c95760405162461bcd60e51b815260206004820152601360248201527229ab9d103737ba1030b71037b832b930ba37b960691b6044820152606401610579565b6001600160a01b03166000908152602081905260409020805460ff19166001179055565b6114f5611ec0565b61147681611f09565b611506611ec0565b6115108282611f11565b5050565b6040805160e0810182526000808252602082018190529181018290526060808201526080810182905260a0810182905260c08101919091526000828152600280850160209081526040808420815160e0810183528154815260018201546001600160a01b039081169482019490945293810154909216908301526003810180546060840191906115a390612ded565b80601f01602080910402602001604051908101604052809291908181526020018280546115cf90612ded565b801561161c5780601f106115f15761010080835404028352916020019161161c565b820191906000526020600020905b8154815290600101906020018083116115ff57829003601f168201915b505050918352505060048201546001600160a01b0390811660208084019190915260058401546040840152600690930154606090920191909152908201519192501615801561167257506116708484611f72565b155b1561169357604051630e8152f560e21b815260048101849052602401610579565b90505b92915050565b606081015151156116d7576116d181606001518260a0015183608001516001600160a01b0316611f7e9092919063ffffffff16565b506116e9565b6116e981608001518260a0015161201b565b60408101516001600160a01b0316156114765761151081604001516001600160a01b0316631ada3ad9836000015160405160240161172991815260200190565b60408051601f198184030181529181526020820180516001600160e01b031660e09490941b93909317909252908401516001600160a01b031691506120b7565b60008181526002808401602052604082208281556001810180546001600160a01b03199081169091559181018054909216909155816117ab6003830182612778565b506004810180546001600160a01b031916905560006005820181905560069091015561169383836120c5565b60006116966117e46120d1565b8360405161190160f01b8152600281019290925260228201526042902090565b600080600080611816888888886120e0565b92509250925061182682826121af565b50909150505b949350505050565b3361183d610f8b565b6001600160a01b031614610e1f5760405163118cdaa760e01b8152336004820152602401610579565b6060306001600160a01b038616036118b85760405162461bcd60e51b815260206004820152601560248201527453573a20746f2063616e6e6f74206265207468697360581b6044820152606401610579565b6118c3858484612268565b811561196d57836000036119225761191b83838080601f016020809104026020016040519081016040528093929190818152602001838380828437600092019190915250506001600160a01b038916929150506120b7565b905061182c565b61191b83838080601f01602080910402602001604051908101604052809392919081815260200183838082843760009201919091525050506001600160a01b03881691905086611f7e565b61182c858561201b565b606061169682612308565b7f9016d09d72d40fdae2fd8ceac6b6234c7706214fd39c1cd1e609a0528c19930080546001600160a01b031981166001600160a01b03848116918217845560405192169182907f8be0079c531659141344cd1fd0a4f28419497f9722a3daafe3b4186f6b6457e090600090a3505050565b7fa16a46d94261c7517cc8ff89f61c0ce93598e3c849801011dee649a6a557d102805460609160008051602061327f83398151915291611a3290612ded565b80601f0160208091040260200160405190810160405280929190818152602001828054611a5e90612ded565b8015611aab5780601f10611a8057610100808354040283529160200191611aab565b820191906000526020600020905b815481529060010190602001808311611a8e57829003601f168201915b505050505091505090565b7fa16a46d94261c7517cc8ff89f61c0ce93598e3c849801011dee649a6a557d103805460609160008051602061327f83398151915291611a3290612ded565b6006546040516370a0823160e01b81523060048201526000916001600160a01b0316906370a0823190602401602060405180830381865afa158015611b3e573d6000803e3d6000fd5b505050506040513d601f19601f82011682018060405250810190611b629190612f5d565b905081811015611c1357600c54600e8054611c11926001600160a01b03169190611b8b90612ded565b80601f0160208091040260200160405190810160405280929190818152602001828054611bb790612ded565b8015611c045780601f10611bd957610100808354040283529160200191611c04565b820191906000526020600020905b815481529060010190602001808311611be757829003601f168201915b5050505050308547612315565b505b60065460075460405163095ea7b360e01b81526001600160a01b0391821660048201526024810185905291169063095ea7b3906044016020604051808303816000875af1158015611c68573d6000803e3d6000fd5b505050506040513d601f19601f82011682018060405250810190611c8c9190612f76565b50600554600003611d945760408051610160810182526000610140820181815282528251602081810185528282528084019190915230838501819052624c4b406060850152608084015260a083018290528351808201855282815260c08401528351808201855282815260e08401528351908101845290815261010082015267016345785d8a00006101208201526007549151633f678e1160e01b815290916001600160a01b031690633f678e1190611d49908490600401612f98565b6020604051808303816000875af1158015611d68573d6000803e3d6000fd5b505050506040513d601f19601f82011682018060405250810190611d8c9190612f5d565b600555505050565b60085460055460405163948108f760e01b815260048101919091526bffffffffffffffffffffffff841660248201526001600160a01b039091169063948108f790604401600060405180830381600087803b158015611df257600080fd5b505af11580156108f0573d6000803e3d6000fd5b600082815260028481016020908152604080842085518155918501516001830180546001600160a01b03199081166001600160a01b039384161790915591860151938301805490921693169290921790915560608301518391906003820190611e6f90826130b2565b5060808201516004820180546001600160a01b0319166001600160a01b0390921691909117905560a0820151600582015560c090910151600690910155611eb6848461240f565b90505b9392505050565b7ff0c57e16840df040f15088dc2f81fe391c3923bec73e23a9662efc9c229c6a0054600160401b900460ff16610e1f57604051631afcd79f60e31b815260040160405180910390fd5b611443611ec0565b611f19611ec0565b60008051602061327f8339815191527fa16a46d94261c7517cc8ff89f61c0ce93598e3c849801011dee649a6a557d102611f5384826130b2565b5060038101611f6283826130b2565b5060008082556001909101555050565b6000611693838361241b565b606081471015611fa35760405163cd78605960e01b8152306004820152602401610579565b600080856001600160a01b03168486604051611fbf9190613171565b60006040518083038185875af1925050503d8060008114611ffc576040519150601f19603f3d011682016040523d82523d6000602084013e612001565b606091505b5091509150612011868383612433565b9695505050505050565b8047101561203e5760405163cd78605960e01b8152306004820152602401610579565b6000826001600160a01b03168260405160006040518083038185875af1925050503d806000811461208b576040519150601f19603f3d011682016040523d82523d6000602084013e612090565b606091505b50509050806120b257604051630a12f52160e11b815260040160405180910390fd5b505050565b606061169383836000611f7e565b6000611693838361248f565b60006120db612582565b905090565b600080807f7fffffffffffffffffffffffffffffff5d576e7357a4501ddfe92f46681b20a084111561211b57506000915060039050826121a5565b604080516000808252602082018084528a905260ff891692820192909252606081018790526080810186905260019060a0016020604051602081039080840390855afa15801561216f573d6000803e3d6000fd5b5050604051601f1901519150506001600160a01b03811661219b575060009250600191508290506121a5565b9250600091508190505b9450945094915050565b60008260038111156121c3576121c361318d565b036121cc575050565b60018260038111156121e0576121e061318d565b036121fe5760405163f645eedf60e01b815260040160405180910390fd5b60028260038111156122125761221261318d565b036122335760405163fce698f760e01b815260048101829052602401610579565b60038260038111156122475761224761318d565b03611510576040516335e2f38360e21b815260048101829052602401610579565b600081900361227657505050565b600061228560048284866131a3565b61228e916131cd565b6001600160a01b03851660009081526001602090815260408083206001600160e01b03198516845290915290205490915060ff1615610ed95760405162461bcd60e51b815260206004820152601660248201527510d5ce88199d5b98c81a5cc8189b1858db1a5cdd195960521b6044820152606401610579565b60606000611eb9836125f6565b6040805160a0810182528581526001600160a01b038086166020830152428284015260608201859052608082018490529151631e51809360e31b815260009288169063f28c049890859061236d9085906004016131fd565b60206040518083038185885af115801561238b573d6000803e3d6000fd5b50505050506040513d601f19601f820116820180604052508101906123b09190612f5d565b9150866001600160a01b03166312210e8a6040518163ffffffff1660e01b8152600401600060405180830381600087803b1580156123ed57600080fd5b505af1158015612401573d6000803e3d6000fd5b505050505095945050505050565b60006116938383612652565b60008181526001830160205260408120541515611693565b60608261244857612443826126a1565b611eb9565b815115801561245f57506001600160a01b0384163b155b1561248857604051639996b31560e01b81526001600160a01b0385166004820152602401610579565b5080611eb9565b600081815260018301602052604081205480156125785760006124b3600183613255565b85549091506000906124c790600190613255565b905080821461252c5760008660000182815481106124e7576124e7612d60565b906000526020600020015490508087600001848154811061250a5761250a612d60565b6000918252602080832090910192909255918252600188019052604090208390555b855486908061253d5761253d613268565b600190038181906000526020600020016000905590558560010160008681526020019081526020016000206000905560019350505050611696565b6000915050611696565b60007f8b73c3c69bb8fe3d512ecc4cf759cc79239f7b179b0ffacaa9a75d522b39400f6125ad6126ca565b6125b5612734565b60408051602081019490945283019190915260608201524660808201523060a082015260c00160405160208183030381529060405280519060200120905090565b60608160000180548060200260200160405190810160405280929190818152602001828054801561264657602002820191906000526020600020905b815481526020019060010190808311612632575b50505050509050919050565b600081815260018301602052604081205461269957508154600181810184556000848152602080822090930184905584548482528286019093526040902091909155611696565b506000611696565b8051156126b15780518082602001fd5b604051630a12f52160e11b815260040160405180910390fd5b600060008051602061327f833981519152816126e46119f3565b8051909150156126fc57805160209091012092915050565b8154801561270b579392505050565b7fc5d2460186f7233c927e7db2dcc703c0e500b653ca82273b7bfad8045d85a470935050505090565b600060008051602061327f8339815191528161274e611ab6565b80519091501561276657805160209091012092915050565b6001820154801561270b579392505050565b50805461278490612ded565b6000825580601f10612794575050565b601f01602090049060005260206000209081019061147691905b808211156127c257600081556001016127ae565b5090565b60008083601f8401126127d857600080fd5b5081356001600160401b038111156127ef57600080fd5b6020830191508360208260051b8501011115610e0657600080fd5b6000806000806040858703121561282057600080fd5b84356001600160401b038082111561283757600080fd5b612843888389016127c6565b9096509450602087013591508082111561285c57600080fd5b50612869878288016127c6565b95989497509550505050565b60006020828403121561288757600080fd5b81356001600160401b0381111561289d57600080fd5b8201610100818503121561169357600080fd5b60008083601f8401126128c257600080fd5b5081356001600160401b038111156128d957600080fd5b602083019150836020828501011115610e0657600080fd5b6000806020838503121561290457600080fd5b82356001600160401b0381111561291a57600080fd5b612926858286016128b0565b90969095509350505050565b80356001600160a01b038116811461294957600080fd5b919050565b600080600080600060a0868803121561296657600080fd5b61296f86612932565b945060208601359350604086013560ff8116811461298c57600080fd5b94979396509394606081013594506080013592915050565b600080600080600080606087890312156129bd57600080fd5b86356001600160401b03808211156129d457600080fd5b6129e08a838b016127c6565b909850965060208901359150808211156129f957600080fd5b612a058a838b016127c6565b90965094506040890135915080821115612a1e57600080fd5b50612a2b89828a016127c6565b979a9699509497509295939492505050565b60005b83811015612a58578181015183820152602001612a40565b50506000910152565b60008151808452612a79816020860160208601612a3d565b601f01601f19169290920160200192915050565b600060208083016020845280855180835260408601915060408160051b87010192506020870160005b82811015612ae457603f19888603018452612ad2858351612a61565b94509285019290850190600101612ab6565b5092979650505050505050565b80356001600160e01b03198116811461294957600080fd5b60008060408385031215612b1c57600080fd5b612b2583612932565b9150612b3360208401612af1565b90509250929050565b600060208284031215612b4e57600080fd5b61169382612932565b8215158152604060208201526000611eb66040830184612a61565b600060208284031215612b8457600080fd5b5035919050565b60ff60f81b881681526000602060e06020840152612bac60e084018a612a61565b8381036040850152612bbe818a612a61565b606085018990526001600160a01b038816608086015260a0850187905284810360c08601528551808252602080880193509091019060005b81811015612c1257835183529284019291840191600101612bf6565b50909c9b505050505050505050505050565b60008060008060608587031215612c3a57600080fd5b612c4385612932565b93506020850135925060408501356001600160401b03811115612c6557600080fd5b612869878288016128b0565b6020815260006116936020830184612a61565b600080600080600080600060c0888a031215612c9f57600080fd5b87359650612caf60208901612932565b955060408801356001600160401b03811115612cca57600080fd5b612cd68a828b016128b0565b9096509450612ce9905060608901612932565b92506080880135915060a0880135905092959891949750929550565b60208082526014908201527314d5ce881b9bdd081a5b88185b1b1bdddb1a5cdd60621b604082015260600190565b60208082526013908201527253573a206d69736d617463682061727261797360681b604082015260600190565b634e487b7160e01b600052603260045260246000fd5b600060208284031215612d8857600080fd5b61169382612af1565b6000808335601e19843603018112612da857600080fd5b8301803591506001600160401b03821115612dc257600080fd5b602001915036819003821315610e0657600080fd5b634e487b7160e01b600052604160045260246000fd5b600181811c90821680612e0157607f821691505b602082108103612e2157634e487b7160e01b600052602260045260246000fd5b50919050565b601f8211156120b2576000816000526020600020601f850160051c81016020861015612e505750805b601f850160051c820191505b818110156108f057828155600101612e5c565b6001600160401b03831115612e8657612e86612dd7565b612e9a83612e948354612ded565b83612e27565b6000601f841160018114612ece5760008515612eb65750838201355b600019600387901b1c1916600186901b178355610653565b600083815260209020601f19861690835b82811015612eff5786850135825560209485019460019092019101612edf565b5086821015612f1c5760001960f88860031b161c19848701351681555b505060018560011b0183555050505050565b634e487b7160e01b600052601160045260246000fd5b600060018201612f5657612f56612f2e565b5060010190565b600060208284031215612f6f57600080fd5b5051919050565b600060208284031215612f8857600080fd5b8151801515811461169357600080fd5b6020815260008251610140806020850152612fb7610160850183612a61565b91506020850151601f1980868503016040870152612fd58483612a61565b935060408701519150612ff360608701836001600160a01b03169052565b606087015163ffffffff81166080880152915060808701516001600160a01b03811660a0880152915060a087015160ff811660c0880152915060c08701519150808685030160e08701526130478483612a61565b935060e087015191506101008187860301818801526130668584612a61565b9450808801519250506101208187860301818801526130858584612a61565b945080880151925050506130a8828601826bffffffffffffffffffffffff169052565b5090949350505050565b81516001600160401b038111156130cb576130cb612dd7565b6130df816130d98454612ded565b84612e27565b602080601f83116001811461311457600084156130fc5750858301515b600019600386901b1c1916600185901b1785556108f0565b600085815260208120601f198616915b8281101561314357888601518255948401946001909101908401613124565b50858210156131615787850151600019600388901b60f8161c191681555b5050505050600190811b01905550565b60008251613183818460208701612a3d565b9190910192915050565b634e487b7160e01b600052602160045260246000fd5b600080858511156131b357600080fd5b838611156131c057600080fd5b5050820193919092039150565b6001600160e01b031981358181169160048510156131f55780818660040360031b1b83161692505b505092915050565b602081526000825160a0602084015261321960c0840182612a61565b905060018060a01b0360208501511660408401526040840151606084015260608401516080840152608084015160a08401528091505092915050565b8181038181111561169657611696612f2e565b634e487b7160e01b600052603160045260246000fdfea16a46d94261c7517cc8ff89f61c0ce93598e3c849801011dee649a6a557d100a2646970667358221220ac97a7a5cf225a350048611a6c0f39cb462610abd77982164c812654c06795a364736f6c63430008180033",
  "linkReferences": {},
  "deployedLinkReferences": {}
}