{
  "_format": "hh-sol-artifact-1",
  "contractName": "TestERC721",
  "sourceName": "contracts/test/TestERC721.sol",
  "abi": [
    {
      "inputs": [
        {
          "internalType": "string",
          "name": "name_",
          "type": "string"
        },
        {
          "internalType": "string",
          "name": "symbol_",
          "type": "string"
        },
        {
          "internalType": "string",
          "name": "baseUri_",
          "type": "string"
        }
      ],
      "stateMutability": "nonpayable",
      "type": "constructor"
    },
    {
      "inputs": [
        {
          "internalType": "address",
          "name": "sender",
          "type": "address"
        },
        {
          "internalType": "uint256",
          "name": "tokenId",
          "type": "uint256"
        },
        {
          "internalType": "address",
          "name": "owner",
          "type": "address"
        }
      ],
      "name": "ERC721IncorrectOwner",
      "type": "error"
    },
    {
      "inputs": [
        {
          "internalType": "address",
          "name": "operator",
          "type": "address"
        },
        {
          "internalType": "uint256",
          "name": "tokenId",
          "type": "uint256"
        }
      ],
      "name": "ERC721InsufficientApproval",
      "type": "error"
    },
    {
      "inputs": [
        {
          "internalType": "address",
          "name": "approver",
          "type": "address"
        }
      ],
      "name": "ERC721InvalidApprover",
      "type": "error"
    },
    {
      "inputs": [
        {
          "internalType": "address",
          "name": "operator",
          "type": "address"
        }
      ],
      "name": "ERC721InvalidOperator",
      "type": "error"
    },
    {
      "inputs": [
        {
          "internalType": "address",
          "name": "owner",
          "type": "address"
        }
      ],
      "name": "ERC721InvalidOwner",
      "type": "error"
    },
    {
      "inputs": [
        {
          "internalType": "address",
          "name": "receiver",
          "type": "address"
        }
      ],
      "name": "ERC721InvalidReceiver",
      "type": "error"
    },
    {
      "inputs": [
        {
          "internalType": "address",
          "name": "sender",
          "type": "address"
        }
      ],
      "name": "ERC721InvalidSender",
      "type": "error"
    },
    {
      "inputs": [
        {
          "internalType": "uint256",
          "name": "tokenId",
          "type": "uint256"
        }
      ],
      "name": "ERC721NonexistentToken",
      "type": "error"
    },
    {
      "anonymous": false,
      "inputs": [
        {
          "indexed": true,
          "internalType": "address",
          "name": "owner",
          "type": "address"
        },
        {
          "indexed": true,
          "internalType": "address",
          "name": "approved",
          "type": "address"
        },
        {
          "indexed": true,
          "internalType": "uint256",
          "name": "tokenId",
          "type": "uint256"
        }
      ],
      "name": "Approval",
      "type": "event"
    },
    {
      "anonymous": false,
      "inputs": [
        {
          "indexed": true,
          "internalType": "address",
          "name": "owner",
          "type": "address"
        },
        {
          "indexed": true,
          "internalType": "address",
          "name": "operator",
          "type": "address"
        },
        {
          "indexed": false,
          "internalType": "bool",
          "name": "approved",
          "type": "bool"
        }
      ],
      "name": "ApprovalForAll",
      "type": "event"
    },
    {
      "anonymous": false,
      "inputs": [
        {
          "indexed": true,
          "internalType": "address",
          "name": "from",
          "type": "address"
        },
        {
          "indexed": true,
          "internalType": "address",
          "name": "to",
          "type": "address"
        },
        {
          "indexed": true,
          "internalType": "uint256",
          "name": "tokenId",
          "type": "uint256"
        }
      ],
      "name": "Transfer",
      "type": "event"
    },
    {
      "inputs": [
        {
          "internalType": "address",
          "name": "to",
          "type": "address"
        },
        {
          "internalType": "uint256",
          "name": "tokenId",
          "type": "uint256"
        }
      ],
      "name": "approve",
      "outputs": [],
      "stateMutability": "nonpayable",
      "type": "function"
    },
    {
      "inputs": [
        {
          "internalType": "address",
          "name": "owner",
          "type": "address"
        }
      ],
      "name": "balanceOf",
      "outputs": [
        {
          "internalType": "uint256",
          "name": "",
          "type": "uint256"
        }
      ],
      "stateMutability": "view",
      "type": "function"
    },
    {
      "inputs": [
        {
          "internalType": "uint256",
          "name": "tokenId",
          "type": "uint256"
        }
      ],
      "name": "getApproved",
      "outputs": [
        {
          "internalType": "address",
          "name": "",
          "type": "address"
        }
      ],
      "stateMutability": "view",
      "type": "function"
    },
    {
      "inputs": [
        {
          "internalType": "address",
          "name": "owner",
          "type": "address"
        },
        {
          "internalType": "address",
          "name": "operator",
          "type": "address"
        }
      ],
      "name": "isApprovedForAll",
      "outputs": [
        {
          "internalType": "bool",
          "name": "",
          "type": "bool"
        }
      ],
      "stateMutability": "view",
      "type": "function"
    },
    {
      "inputs": [
        {
          "internalType": "address",
          "name": "to",
          "type": "address"
        },
        {
          "internalType": "uint256",
          "name": "tokenId",
          "type": "uint256"
        }
      ],
      "name": "mint",
      "outputs": [],
      "stateMutability": "nonpayable",
      "type": "function"
    },
    {
      "inputs": [],
      "name": "name",
      "outputs": [
        {
          "internalType": "string",
          "name": "",
          "type": "string"
        }
      ],
      "stateMutability": "view",
      "type": "function"
    },
    {
      "inputs": [
        {
          "internalType": "uint256",
          "name": "tokenId",
          "type": "uint256"
        }
      ],
      "name": "ownerOf",
      "outputs": [
        {
          "internalType": "address",
          "name": "",
          "type": "address"
        }
      ],
      "stateMutability": "view",
      "type": "function"
    },
    {
      "inputs": [
        {
          "internalType": "address",
          "name": "from",
          "type": "address"
        },
        {
          "internalType": "address",
          "name": "to",
          "type": "address"
        },
        {
          "internalType": "uint256",
          "name": "tokenId",
          "type": "uint256"
        }
      ],
      "name": "safeTransferFrom",
      "outputs": [],
      "stateMutability": "nonpayable",
      "type": "function"
    },
    {
      "inputs": [
        {
          "internalType": "address",
          "name": "from",
          "type": "address"
        },
        {
          "internalType": "address",
          "name": "to",
          "type": "address"
        },
        {
          "internalType": "uint256",
          "name": "tokenId",
          "type": "uint256"
        },
        {
          "internalType": "bytes",
          "name": "data",
          "type": "bytes"
        }
      ],
      "name": "safeTransferFrom",
      "outputs": [],
      "stateMutability": "nonpayable",
      "type": "function"
    },
    {
      "inputs": [
        {
          "internalType": "address",
          "name": "operator",
          "type": "address"
        },
        {
          "internalType": "bool",
          "name": "approved",
          "type": "bool"
        }
      ],
      "name": "setApprovalForAll",
      "outputs": [],
      "stateMutability": "nonpayable",
      "type": "function"
    },
    {
      "inputs": [
        {
          "internalType": "string",
          "name": "baseUri_",
          "type": "string"
        }
      ],
      "name": "setBaseURI",
      "outputs": [],
      "stateMutability": "nonpayable",
      "type": "function"
    },
    {
      "inputs": [
        {
          "internalType": "bytes4",
          "name": "interfaceId",
          "type": "bytes4"
        }
      ],
      "name": "supportsInterface",
      "outputs": [
        {
          "internalType": "bool",
          "name": "",
          "type": "bool"
        }
      ],
      "stateMutability": "view",
      "type": "function"
    },
    {
      "inputs": [],
      "name": "symbol",
      "outputs": [
        {
          "internalType": "string",
          "name": "",
          "type": "string"
        }
      ],
      "stateMutability": "view",
      "type": "function"
    },
    {
      "inputs": [
        {
          "internalType": "uint256",
          "name": "tokenId",
          "type": "uint256"
        }
      ],
      "name": "tokenURI",
      "outputs": [
        {
          "internalType": "string",
          "name": "",
          "type": "string"
        }
      ],
      "stateMutability": "view",
      "type": "function"
    },
    {
      "inputs": [
        {
          "internalType": "address",
          "name": "from",
          "type": "address"
        },
        {
          "internalType": "address",
          "name": "to",
          "type": "address"
        },
        {
          "internalType": "uint256",
          "name": "tokenId",
          "type": "uint256"
        }
      ],
      "name": "transferFrom",
      "outputs": [],
      "stateMutability": "nonpayable",
      "type": "function"
    }
  ],
  "bytecode": "0x60806040523480156200001157600080fd5b506040516200144b3803806200144b833981016040819052620000349162000138565b828260006200004483826200025a565b5060016200005382826200025a565b506006915062000066905082826200025a565b5050505062000326565b634e487b7160e01b600052604160045260246000fd5b600082601f8301126200009857600080fd5b81516001600160401b0380821115620000b557620000b562000070565b604051601f8301601f19908116603f01168101908282118183101715620000e057620000e062000070565b8160405283815260209250866020858801011115620000fe57600080fd5b600091505b8382101562000122578582018301518183018401529082019062000103565b6000602085830101528094505050505092915050565b6000806000606084860312156200014e57600080fd5b83516001600160401b03808211156200016657600080fd5b620001748783880162000086565b945060208601519150808211156200018b57600080fd5b620001998783880162000086565b93506040860151915080821115620001b057600080fd5b50620001bf8682870162000086565b9150509250925092565b600181811c90821680620001de57607f821691505b602082108103620001ff57634e487b7160e01b600052602260045260246000fd5b50919050565b601f82111562000255576000816000526020600020601f850160051c81016020861015620002305750805b601f850160051c820191505b8181101562000251578281556001016200023c565b5050505b505050565b81516001600160401b0381111562000276576200027662000070565b6200028e81620002878454620001c9565b8462000205565b602080601f831160018114620002c65760008415620002ad5750858301515b600019600386901b1c1916600185901b17855562000251565b600085815260208120601f198616915b82811015620002f757888601518255948401946001909101908401620002d6565b5085821015620003165787850151600019600388901b60f8161c191681555b5050505050600190811b01905550565b61111580620003366000396000f3fe608060405234801561001057600080fd5b50600436106100f55760003560e01c806355f804b311610097578063a22cb46511610066578063a22cb465146101ff578063b88d4fde14610212578063c87b56dd14610225578063e985e9c51461023857600080fd5b806355f804b3146101b05780636352211e146101c357806370a08231146101d657806395d89b41146101f757600080fd5b8063095ea7b3116100d3578063095ea7b31461016257806323b872dd1461017757806340c10f191461018a57806342842e0e1461019d57600080fd5b806301ffc9a7146100fa57806306fdde0314610122578063081812fc14610137575b600080fd5b61010d610108366004610c16565b61024b565b60405190151581526020015b60405180910390f35b61012a61029d565b6040516101199190610c83565b61014a610145366004610c96565b61032f565b6040516001600160a01b039091168152602001610119565b610175610170366004610ccb565b610358565b005b610175610185366004610cf5565b610367565b610175610198366004610ccb565b6103f7565b6101756101ab366004610cf5565b610401565b6101756101be366004610dbd565b610421565b61014a6101d1366004610c96565b61042d565b6101e96101e4366004610e06565b610438565b604051908152602001610119565b61012a610480565b61017561020d366004610e21565b61048f565b610175610220366004610e5d565b61049a565b61012a610233366004610c96565b6104b1565b61010d610246366004610ed9565b610519565b60006001600160e01b031982166380ac58cd60e01b148061027c57506001600160e01b03198216635b5e139f60e01b145b8061029757506301ffc9a760e01b6001600160e01b03198316145b92915050565b6060600080546102ac90610f0c565b80601f01602080910402602001604051908101604052809291908181526020018280546102d890610f0c565b80156103255780601f106102fa57610100808354040283529160200191610325565b820191906000526020600020905b81548152906001019060200180831161030857829003601f168201915b5050505050905090565b600061033a82610547565b506000828152600460205260409020546001600160a01b0316610297565b610363828233610580565b5050565b6001600160a01b03821661039657604051633250574960e11b8152600060048201526024015b60405180910390fd5b60006103a383833361058d565b9050836001600160a01b0316816001600160a01b0316146103f1576040516364283d7b60e01b81526001600160a01b038086166004830152602482018490528216604482015260640161038d565b50505050565b6103638282610686565b61041c8383836040518060200160405280600081525061049a565b505050565b60066103638282610f96565b600061029782610547565b60006001600160a01b038216610464576040516322718ad960e21b81526000600482015260240161038d565b506001600160a01b031660009081526003602052604090205490565b6060600180546102ac90610f0c565b6103633383836106eb565b6104a5848484610367565b6103f18484848461078a565b60606104bc82610547565b5060006104c76108b3565b905060008151116104e75760405180602001604052806000815250610512565b806104f1846108c2565b604051602001610502929190611056565b6040516020818303038152906040525b9392505050565b6001600160a01b03918216600090815260056020908152604080832093909416825291909152205460ff1690565b6000818152600260205260408120546001600160a01b03168061029757604051637e27328960e01b81526004810184905260240161038d565b61041c8383836001610955565b6000828152600260205260408120546001600160a01b03908116908316156105ba576105ba818486610a5b565b6001600160a01b038116156105f8576105d7600085600080610955565b6001600160a01b038116600090815260036020526040902080546000190190555b6001600160a01b03851615610627576001600160a01b0385166000908152600360205260409020805460010190555b60008481526002602052604080822080546001600160a01b0319166001600160a01b0389811691821790925591518793918516917fddf252ad1be2c89b69c2b068fc378daa952ba7f163c4a11628f55a4df523b3ef91a4949350505050565b6001600160a01b0382166106b057604051633250574960e11b81526000600482015260240161038d565b60006106be8383600061058d565b90506001600160a01b0381161561041c576040516339e3563760e11b81526000600482015260240161038d565b6001600160a01b03821661071d57604051630b61174360e31b81526001600160a01b038316600482015260240161038d565b6001600160a01b03838116600081815260056020908152604080832094871680845294825291829020805460ff191686151590811790915591519182527f17307eab39ab6107e8899845ad3d59bd9653f200f220920489ca2b5937696c31910160405180910390a3505050565b6001600160a01b0383163b156103f157604051630a85bd0160e11b81526001600160a01b0384169063150b7a02906107cc903390889087908790600401611085565b6020604051808303816000875af1925050508015610807575060408051601f3d908101601f19168201909252610804918101906110c2565b60015b610870573d808015610835576040519150601f19603f3d011682016040523d82523d6000602084013e61083a565b606091505b50805160000361086857604051633250574960e11b81526001600160a01b038516600482015260240161038d565b805181602001fd5b6001600160e01b03198116630a85bd0160e11b146108ac57604051633250574960e11b81526001600160a01b038516600482015260240161038d565b5050505050565b6060600680546102ac90610f0c565b606060006108cf83610abf565b600101905060008167ffffffffffffffff8111156108ef576108ef610d31565b6040519080825280601f01601f191660200182016040528015610919576020820181803683370190505b5090508181016020015b600019016f181899199a1a9b1b9c1cb0b131b232b360811b600a86061a8153600a850494508461092357509392505050565b808061096957506001600160a01b03821615155b15610a2b57600061097984610547565b90506001600160a01b038316158015906109a55750826001600160a01b0316816001600160a01b031614155b80156109b857506109b68184610519565b155b156109e15760405163a9fbf51f60e01b81526001600160a01b038416600482015260240161038d565b8115610a295783856001600160a01b0316826001600160a01b03167f8c5be1e5ebec7d5bd14f71427d1e84f3dd0314c0f7b2291e5b200ac8c7c3b92560405160405180910390a45b505b5050600090815260046020526040902080546001600160a01b0319166001600160a01b0392909216919091179055565b610a66838383610b97565b61041c576001600160a01b038316610a9457604051637e27328960e01b81526004810182905260240161038d565b60405163177e802f60e01b81526001600160a01b03831660048201526024810182905260440161038d565b60008072184f03e93ff9f4daa797ed6e38ed64bf6a1f0160401b8310610afe5772184f03e93ff9f4daa797ed6e38ed64bf6a1f0160401b830492506040015b6d04ee2d6d415b85acef81000000008310610b2a576d04ee2d6d415b85acef8100000000830492506020015b662386f26fc100008310610b4857662386f26fc10000830492506010015b6305f5e1008310610b60576305f5e100830492506008015b6127108310610b7457612710830492506004015b60648310610b86576064830492506002015b600a83106102975760010192915050565b60006001600160a01b03831615801590610bf55750826001600160a01b0316846001600160a01b03161480610bd15750610bd18484610519565b80610bf557506000828152600460205260409020546001600160a01b038481169116145b949350505050565b6001600160e01b031981168114610c1357600080fd5b50565b600060208284031215610c2857600080fd5b813561051281610bfd565b60005b83811015610c4e578181015183820152602001610c36565b50506000910152565b60008151808452610c6f816020860160208601610c33565b601f01601f19169290920160200192915050565b6020815260006105126020830184610c57565b600060208284031215610ca857600080fd5b5035919050565b80356001600160a01b0381168114610cc657600080fd5b919050565b60008060408385031215610cde57600080fd5b610ce783610caf565b946020939093013593505050565b600080600060608486031215610d0a57600080fd5b610d1384610caf565b9250610d2160208501610caf565b9150604084013590509250925092565b634e487b7160e01b600052604160045260246000fd5b600067ffffffffffffffff80841115610d6257610d62610d31565b604051601f8501601f19908116603f01168101908282118183101715610d8a57610d8a610d31565b81604052809350858152868686011115610da357600080fd5b858560208301376000602087830101525050509392505050565b600060208284031215610dcf57600080fd5b813567ffffffffffffffff811115610de657600080fd5b8201601f81018413610df757600080fd5b610bf584823560208401610d47565b600060208284031215610e1857600080fd5b61051282610caf565b60008060408385031215610e3457600080fd5b610e3d83610caf565b915060208301358015158114610e5257600080fd5b809150509250929050565b60008060008060808587031215610e7357600080fd5b610e7c85610caf565b9350610e8a60208601610caf565b925060408501359150606085013567ffffffffffffffff811115610ead57600080fd5b8501601f81018713610ebe57600080fd5b610ecd87823560208401610d47565b91505092959194509250565b60008060408385031215610eec57600080fd5b610ef583610caf565b9150610f0360208401610caf565b90509250929050565b600181811c90821680610f2057607f821691505b602082108103610f4057634e487b7160e01b600052602260045260246000fd5b50919050565b601f82111561041c576000816000526020600020601f850160051c81016020861015610f6f5750805b601f850160051c820191505b81811015610f8e57828155600101610f7b565b505050505050565b815167ffffffffffffffff811115610fb057610fb0610d31565b610fc481610fbe8454610f0c565b84610f46565b602080601f831160018114610ff95760008415610fe15750858301515b600019600386901b1c1916600185901b178555610f8e565b600085815260208120601f198616915b8281101561102857888601518255948401946001909101908401611009565b50858210156110465787850151600019600388901b60f8161c191681555b5050505050600190811b01905550565b60008351611068818460208801610c33565b83519083019061107c818360208801610c33565b01949350505050565b6001600160a01b03858116825284166020820152604081018390526080606082018190526000906110b890830184610c57565b9695505050505050565b6000602082840312156110d457600080fd5b815161051281610bfd56fea26469706673582212203177b788b884e7237e6338822defd79251de91f78ac379a4c84146eeb23b901f64736f6c63430008180033",
  "linkReferences": {},
  "deployedLinkReferences": {}
}